:100000000C94F5050C9412060C9412060C9412062E
:100010000C9412060C9412060C9412060C94120600
:100020000C9412060C9412060C949C2F0C947430B1
:100030000C94C81F0C9412060C9412060C94120611
:100040000C9412060C9412060C9412060C941206D0
:100050000C9412060C94782F0C9412060C94120631
:100060000C9412060C9412060C9412060C941206B0
:100070000C9412060C9412060C9412060C941206A0
:100080000C9412060C9412060C9412060C94120690
:100090000C9412060C9412060C9412060C94120680
:1000A0000C9412060C9412060C9412060501098099
:1000B000A101850319012AB700150126B700950192
:1000C00075108100C0050C0901A101850419012AE0
:1000D000A002150126A002950175108100C005013E
:1000E0000906A1018506050719E029E71500250184
:1000F0009508750181020507190029EF15002501F2
:1001000095F075018102050819012905950575010C
:100110009102950175039101C00660FF0961A1017B
:100120000962150026FF00952075088102096315F4
:100130000026FF00952075089102C005010906A15F
:1001400001050719E029E7150025019508750181CA
:10015000029501750881010507190029FF15002680
:10016000FF0095067508810005081901290515008D
:100170002501950575019102950175039101C00056
:10018000AF00AE0000000000003E5B4F5B3E003E53
:100190006B4F6B3E001C3E7C3E1C00183C7E3C18A6
:1001A000001C577D571C001C5E7F5E1C0000183C25
:1001B000180000FFE7C3E7FF00001824180000FF45
:1001C000E7DBE7FF0030483A060E002629792926AA
:1001D00000407F05050700407F05253F005A3CE7AA
:1001E0003C5A007F3E1C1C0800081C1C3E7F00146B
:1001F000227F2214005F5F005F5F0006097F017F9E
:1002000000006689956A0060606060600094A2FFEB
:10021000A2940008047E04080010207E201000082C
:10022000082A1C0800081C2A0808001E10101010BC
:10023000000C1E0C1E0C0030383E383000060E3EFE
:100240000E060000000000000000005F000000003B
:100250000700070000147F147F1400242A7F2A124D
:100260000023130864620036495620500000080736
:10027000030000001C224100000041221C00002A53
:100280001C7F1C2A0008083E08080000807030000F
:10029000000808080808000000606000002010083E
:1002A0000402003E5149453E0000427F400000727A
:1002B00049494946002141494D33001814127F1025
:1002C000002745454539003C4A4949310041211143
:1002D000090700364949493600464949291E0000A8
:1002E0000014000000004034000000000814224107
:1002F00000141414141400004122140800020159BF
:100300000906003E415D594E007C1211127C007FAF
:1003100049494936003E41414122007F4141413E29
:10032000007F49494941007F09090901003E4141D7
:100330005173007F0808087F0000417F41000020C2
:1003400040413F01007F08142241007F404040406F
:10035000007F021C027F007F0408107F003E4141A5
:10036000413E007F09090906003E4151215E007FA0
:10037000091929460026494949320003017F010332
:10038000003F4040403F001F2040201F003F4038BA
:10039000403F006314081463000304780403006101
:1003A00059494D4300007F4141410002040810209B
:1003B00000004141417F000402010204004040402E
:1003C0004040000003070800002054547840007F9C
:1003D0002844443800384444442800384444287FA2
:1003E0000038545454180000087E090200182424D0
:1003F0001C78007F080404780000447D4000002041
:1004000040403D00007F102844000000417F400034
:10041000007C04780478007C0804047800384444A4
:100420004438007C1824241800182424187C007CEC
:10043000080404080048545454240004043F44248D
:10044000003C4040207C001C2040201C003C4030F0
:10045000403C004428102844004C9090907C00447C
:1004600064544C440000083641000000007700004E
:10047000000041360800000201020402003C26236D
:10048000263C000000000000000000000000F8F81A
:10049000F8F8F80000F8F8F8F8F8F8F8F8F8F8F8CC
:1004A000F8F8F8F8F8F8F8000000F8F0E0C080007C
:1004B000000000000000C0E0F0F8000000F8F0E0EC
:1004C000C08000000000000080C0C0E0F0F0F80034
:1004D00000181818181818181810303060C080004C
:1004E000000000000000000000000000000000000C
:1004F00000000000000000000000000000000000FC
:1005000000E0F0F0F0E0ECEEF7F37020007C7C7C93
:100510007E007E7E7E7F7F7F000080C0E07E5B4F1E
:100520005BFEC00000C000DCD7DEDEDED7DC00C032
:1005300000000000000000000000000000000000BB
:1005400000000000C0C0C0C0C00000000000FCF9F6
:10055000F3E74F000000000000000000F3E7CF9F2A
:100560003F000000000000000000FBF7EFDF3F7FCE
:10057000FEFCF8F0E0C0FFFFFFFF000000FBF7EF1C
:10058000DF3F7FFEFCFEFFFFDF8F07070301010057
:1005900000E0E00000000000000000000000C7FFD5
:1005A000002020202020008040202000000060004B
:1005B00000C040202020400000C080000000E0007B
:1005C000000F1F3F7F7F7F7F7F3F1E0C001F1F1F7D
:1005D0003F003F3F3F7F7F7F00307B7F7830202090
:1005E00030787F3B0003000F7F0F0F0F7F0F00035A
:1005F00000000000000000000000000000000000FB
:10060000000000000003070F1F1F1F1E1F1F1F0FEA
:100610000703000000000000000000001F1F1F1F54
:100620001F0000000000000000001F1F1F1F00002F
:10063000000103070F1F1F1F1F1F0000001F1F1FA8
:100640001F0000000103070F1F1F1F1E1C181000B2
:10065000003F3F3030303030301018180C060301A6
:100660000012121212120008110012120C001F00C8
:10067000030C101010101000001F000306081F00CC
:10068000000000000000000000000000000000006A
:10069000000000000000000000000000000000005A
:1006A000000000000000000000000000000000004A
:1006B000000000000000000000000000000000003A
:1006C00000000009025B00030100A03209040000E1
:1006D0000103010100092111010001224400070565
:1006E0008103080001090401000203000000092140
:1006F00011010001222200070582032000010705E5
:100700000303200001090402000103000000092185
:1007100011010001226D0007058403200001120170
:1007200000020000000866AB0100010001020001A8
:1007300010036A0074006E006B003600360077000C
:1007400000001A03740061006E0061006B0061001C
:100750006A0075006E006A0075006E0000000403F8
:100760000904A9002B0014001A0008001500170046
:100770001C001800AA003900040016000700090038
:100780000A000B000D002900E1001D001B000600FF
:1007900019000500110010004600E000E300E2002F
:1007A0002C0000002A002152067E0C0012001300CB
:1007B000087E097E0A7E027E037E047E0E000F0004
:1007C0000B7E0C7E2800000021002200017E3600F6
:1007D00037003800E500520000001E00007E2000B7
:1007E000077E0D7E87005000510000004F0027005B
:1007F0003700217801002178227827782878297815
:100800002A7823782278010001000100010001000C
:1008100001000100010001000100010001000100D0
:100820000100010001000100207801000100010029
:1008300001000000010001000100247825782678DD
:1008400001000100010040004100420001000100E0
:1008500001000100010000003D003E003F000100DA
:100860000100010001004B0000003A003B003C0089
:1008700001000100010001004E000000430044009F
:10088000450001000100010001000100010001001C
:100890000100010001000100010001000100010050
:1008A0000100010001000100010001000100010040
:1008B0000100010001000100010001000100010030
:1008C0000100000001000100010001000100010021
:1008D0000100010001000100010001000100010010
:1008E0000100010001000000010001000100010001
:1008F00001000100010001000000010001000100F1
:1009000001000100010001000100000001000100E0
:1009100001000100010001000100010001000100CF
:1009200001000100010001000100010001000100BF
:1009300001000100010001000100010001000100AF
:10094000010001000100010001000100010001009F
:100950000100000001000100010001000100010090
:10096000010001000100010001000100010001007F
:100970000100010001000000010001000100010070
:100980000100010001000100000001000100010060
:100990000100010001000100010000000100010050
:1009A0000100A900AA00DA00D90050004F00510050
:1009B0005200808182838485868788898A8B8C8D8A
:1009C0008E8F9091929394A0A1A2A3A4A5A6A7A86C
:1009D000A9AAABACADAEAFB0B1B2B3B4C0C1C2C3E3
:1009E000C4C5C6C7C8C9CACBCCCDCECFD0D1D2D34F
:1009F000D40041646A757374005261697365004C78
:100A00006F7765720044656661756C74004C61793E
:100A100065723A200000010101010101010101029A
:100A2000020202020202020203030303030303039E
:100A30000404040404040405050505050606060669
:100A400006070707070708080808090909090A0A25
:100A50000A0B0B0B0C0C0C0D0D0D0E0E0E0F0F0FC9
:100A60001010111111121213131414151516161754
:100A700017181819191A1A1B1B1C1D1D1E1E1F20C2
:100A800020212222232424252626272829292A2B0F
:100A90002C2D2D2E2F303132323334353637383934
:100AA0003A3B3C3D3E3F404142434445464748492E
:100AB0004A4C4D4E4F50515354555658595A5B5D00
:100AC0005E5F616264656668696B6C6D6F7072739E
:100AD0007577787A7B7D7E8082838587888A8C8E05
:100AE0008F91939596989A9C9EA0A2A3A5A7A9AB37
:100AF000ADAFB1B3B5B7BABCBEC0C2C4C6C9CBCD29
:100B0000CFD1D4D6D8DBDDDFE2E4E7E9EBEEF0F3DA
:100B1000F5F8FAFDFF00DA0281FFD9F1DB20A4A687
:100B20002EAF00A0C0D30000A1C8D30000AED58076
:100B3000A81F408D142000000000000000000000ED
:100B400000000000000000000000000000000000A5
:100B500000000000000000000000007E0F00D4FF35
:100B6000FFFFC70000007800000000000000002A1E
:100B70002B28000000000000000000000000000022
:100B8000000029000000002C1E34202122243426DD
:100B900027252E362D3738271E1F202122232425D6
:100BA000263333362E37381F0405060708090A0B8B
:100BB0000C0D0E0F101112131415161718191A1BFD
:100BC0001C1D2F3130232D350405060708090A0B9B
:100BD0000C0D0E0F101112131415161718191A1BDD
:100BE0001C1D2F3130354C002E0011241FBECFEFBD
:100BF000DAE0DEBFCDBF28E0A0E4B3E001C01D9283
:100C0000AB35B207E1F713E0A0E0B1E0E6E1FDE6C5
:100C100002C005900D92A034B107D9F70E94AA290D
:100C20000C9406360C940000809355080895809328
:100C30005608089521E030E001C0220F8A95EAF7B6
:100C400080915608822B0E941706089521E030E01B
:100C5000A90102C0440F551F8A95E2F7CA01809589
:100C60009091560889230E94170608959B0167708A
:100C700091E001C0990F6A95EAF763E036952795F0
:100C80006A95E1F7B901660F771F260F371FFA0142
:100C9000E20FF31F40E050E0682F70E08191DF0128
:100CA00011979B01042E02C0369527950A94E2F70E
:100CB000217021952827292328272C934F5F5F4FE8
:100CC0004330510559F708959C01A82FA77083E080
:100CD000369527958A95E1F7C901880F991F820FEC
:100CE000931FFB01E80FF91F40E050E080E02191E5
:100CF00030E00A2E02C0369527950A94E2F721705B
:100D00003327042E01C0220F0A94EAF7822B4F5F8B
:100D10005F4F4330510559F70895282F862F98309B
:100D200070F4293058F4622F70E029E0929F600D32
:100D3000711D11244FE058E00E94360608959C5F13
:100D40009230E0F7622F70E04CE058E0F5CF292FA9
:100D5000983068F4893090F490E06FE078E039E002
:100D6000239F800D911D11240E94640608952C5F1D
:100D7000223020F46CE078E090E0F6CF80E0089537
:100D80009091560821E030E0F90101C0EE0F8A95FC
:100D9000EAF7D90102C0AA0FBB1F6A95E2F7EA2B56
:100DA00001C0220F4A95EAF7892F8E23E81305C068
:100DB000892F822B0E94170608952095822F892360
:100DC000F9CF8091540890915A08892B50910B08C3
:100DD0005523C1F090911A019923A9F090915808D8
:100DE00097FF11C09DE124E433E040E0F901608108
:100DF0002F5F3F4F61114F5F9150C0F7411110922B
:100E00000B08852B089595E024E633E0EECF803E75
:100E10009105D1F1C8F48133910509F47FC048F4FC
:100E20008932910509F46FC08A32910509F47DC0B9
:100E3000089589339105E1F082389105C9F0853331
:100E4000910509F45BC00895843E9105D1F148F401
:100E5000823E910531F1833E910541F181EE90E0B2
:100E60000895863E9105C1F1873E9105E1F108950F
:100E7000209158082370211165C02091590823FF43
:100E800014C089E290E008952091580820FD43C0E5
:100E90003091590830FF09C024FF4EC080E090E037
:100EA00008952091580822FDF7CF08952091580801
:100EB00022FD45C03091590830FD44C024FFF5CFD4
:100EC000EDCF2091590821FFF0CF8091580884FD83
:100ED000E5CF87EE90E008952091580823FFE5CFF5
:100EE00024FDDCCFF6CF2091580823FD2EC0309191
:100EF000590831FFE3CF84EE90E00895209158081F
:100F000025FFD3CFBECF2091580825FD21C02091C9
:100F1000590823FFCACF89E390E00895209158082B
:100F200026FFC3CF8AE290E008952091580826FF5B
:100F3000BCCF81E390E0089583EE90E0089582EEC7
:100F400090E0089580EE90E0089586EE90E0089598
:100F500085E390E0AACF9091580892FF10C041E03D
:100F6000282F2471243009F040E031E0282F287127
:100F7000283009F030E0431711F02CE0822793FF6E
:100F800010C041E0282F2471243109F040E031E005
:100F9000282F2871283109F030E0431711F02CE098
:100FA00082273091590830FF10C051E0282F21715D
:100FB000213009F050E041E0282F2871283009F055
:100FC00040E0541711F029E0822731FF10C041E0C2
:100FD000282F2171213109F040E031E0282F2871BC
:100FE000283109F030E0431711F029E0822794FD01
:100FF000877E08951F93CF93DF930E940707EC012C
:10100000811522E5920708F045C0811540E5940757
:1010100008F0DDC0803E9105F8F48D3C910508F0A4
:10102000AEC0883A910580F4853A910508F099C0E0
:101030008130910521F00497813A910550F4CE0159
:10104000DF91CF911F910895885A91094B9708F429
:101050008BC0C0E0D0E0F3CF811550E2950708F0D7
:10106000CFC0883E910558F39A9581159F4188F726
:101070008D2F0E94AB07182FCE0199270E940707DA
:10108000212F30E0322F2227E901CC27DF71C82B36
:10109000D92BD5CFC03882E5D807C8F5C03692E540
:1010A000D90708F075C0C03422E5D207B0F08C2F04
:1010B00086958695877040E2849FC0011124C37095
:1010C00021E030E0A90102C0440F551FCA95E2F7A4
:1010D000EA01C82BD92BDC68B2CFC03252E5D50764
:1010E00008F04FC08C2F8695869560E2869FC001E0
:1010F0001124C37021E030E0A90102C0440F551F44
:10110000CA95E2F7EA01C82BD92BDD6898CFC03C1D
:1011100052E5D50768F48C2F8F71C03AD24508F09C
:101120004DC090E0982F8827EC01C46FD06A87CF1C
:10113000CE01805C9245809708F08BCFCE0133E0E2
:10114000880F991F3A95E1F7807E9927C370DD27B4
:1011500021E030E0A90102C0440F551FCA95E2F713
:1011600028C0A497D0646BCFC85AD0E0CC0FDD1F45
:10117000C253DD4F0990D881C02DD46460CFD065B3
:101180005ECFCF71D0E0DC2FCC27C16FD06A57CFB4
:101190008C2F86958695877020E2829FC00111244E
:1011A000C37021E030E0A90102C0440F551FCA9569
:1011B000E2F7EA01C82BD92BDA6841CF0E94AB07CE
:1011C000C82FD0E0DC2FCC27CC27DF7138CF8F7130
:1011D0000E94AB0795E0D695C7959A95E1F7CF7039
:1011E000D0E0DC2FCC27282F30E084FF05C084E03E
:1011F000220F331F8A95E1F7C22BD32BD0691FCF63
:1012000099270E940707EC011ACF80E00895A0E01B
:10121000B0E0EDE0F9E00C94D431E82FF0E0EB5EC3
:10122000F54F711109C0E4918E2F7E2F6E2FCDB72F
:10123000DEB7EAE00C94F031262F30E0C72FD0E083
:10124000F491EF2F86E0829F8001839F100D11247F
:10125000EE24EA94F12CC801B7010E94B831AB0129
:10126000220F331F65E5649FC001659F900D112417
:10127000281B390B822F880F280FC7018C1B9D0B51
:10128000F89FD001F99FB00D11248B2F2C9FB00136
:101290002D9F700D1124672F77275701A61AB70AC3
:1012A000FA9D6001FB9DD00C11247D2D5701A21ADF
:1012B000B10895012C9F50012D9FB00C3C9FB00CA4
:1012C0001124AB2CBB24EA18FB08FE9DE001FF9D16
:1012D000D00D112443305105C1F00C3F93E01907A4
:1012E00050F44130510509F4A1CF4230510589F045
:1012F0007E2FED2F9BCF4430510571F046305105C4
:10130000B9F3EB2F8D2D7F2F91CFED2D7B2F8F2FCD
:101310008DCF7B2F8D2F8ACF7D2FEB2FF8CF9C0188
:1013200080E090E0269F812D369F800D911D112435
:1013300008959C018230910508F408959FEF213EA5
:101340008EE1380740F4C90145E0969587954A95A6
:10135000E1F798E0980F61E0E62FE90FFF27FF1F04
:10136000AF0155954795842F449FF001459FF00D9F
:10137000F00D11242E173F0738F49FEF940F9617A6
:1013800058F78FEF860F08954F3FE9F361E0640F40
:10139000F6CFFC019B01009719F4832F8078089504
:1013A000AC0197FF04C044275527481B590BB901CE
:1013B000640F751F37FD0FC0C901841B950BA5E095
:1013C000880F991FAA95E1F70E940F3280E2861BD1
:1013D000F7FD81950895CB0165E0880F991F6A9507
:1013E000E1F7BA01621B730B0E940F3280E6EFCF68
:1013F0001F93172F922FE42FF0E0EE0FFF1FE850FE
:10140000FE4F408124EE429F412D1124E72FF0E052
:1014100050E09A01245E3F4F291B310937FF03C07A
:1014200031952195310993E0220F331F9A95E1F709
:10143000E21BF30BF7FF02C0E0E0F0E07E2F719FAC
:10144000712D11241F9108951F93182F822FE42FBF
:10145000F0E0EE0FFF1FE850FE4F408124EE429F68
:10146000412D1124E12FF0E050E09A01245E3F4F1E
:10147000281B310937FF03C031952195310983E0DD
:10148000220F331F8A95E1F7CF01821B930B9C013A
:1014900097FF02C020E030E0219F212D1124822FF0
:1014A0001F9108950F931F93CF93DF93D62F172F7C
:1014B000C82FBA01C901212F201B022F0E94C90980
:1014C000982F990F990F782F791B700F719F712D9D
:1014D00011246D2F8C2FDF91CF911F910F910895C3
:1014E000FF920F931F93CF93DF93D62FC72F182F01
:1014F000BA01C901F12EF01A0E94C909982F990F5B
:10150000990F082F091B0F0D019F012D11246D2F1D
:101510007C2F802FCDB7DEB7E5E00C94F531EF924C
:101520000F931F93CF93DF93D62F172FC82FBA0196
:10153000C9010E19010F0E94C909702F781B719FF4
:10154000712D11246D2F8C2FDF91CF911F910F9151
:10155000EF900895EF920F931F93CF93DF93D62FC1
:10156000C72F182FBA01C9010E19010F0E94C9090E
:10157000081B019F012D11246D2F7C2F802FDF91DF
:10158000CF911F910F91EF900895622F0895E42F4E
:10159000F0E0EE0FFF1FE850FE4F6081621B0895E0
:1015A000E42FF0E0EE0FFF1FE750FE4F6081621B5B
:1015B0000895322F50E0FA01EE0FFF1FE750FE4F63
:1015C0009081905297FD9195440F551FFA01E85074
:1015D000FE4F2081231B330B290F311D97FD3A95B8
:1015E000620F0895EF920F931F9310E09801220F5E
:1015F000331F200F311F359527956E2D620F1F91D8
:101600000F91EF9008950F93CF93DF93D72FC82FAB
:10161000B90147FD419528E330E0241B310947FD1E
:101620003395229FA001239F500D500D1124669FDA
:10163000C001679F900D900D1124840F951F0E948B
:101640009909982F990F692F680F600F7D2F8C2FA4
:10165000DF91CF910F9108950F93CF93DF93D72F01
:10166000C82FBA01C9010E94C909682F600F7D2FD8
:101670008C2FDF91CF910F910895EF920F93CF931D
:10168000DF93D72FC82FBA01C9010E190E94C909CB
:10169000602F681B7D2F8C2FDF91CF910F91EF90E2
:1016A000089590915B07982B90935B070895FA013A
:1016B00029E0829FC001112480559E4FDC01A60FB6
:1016C000B11D8C918F3F19F0808381E0089580E0F7
:1016D00008950E942B0C08950E944C0C089580934D
:1016E0000F0180914C08837080930E010E94CB0FF4
:1016F00083E080931B010895982F862F20914C083A
:101700002370222389F0992381F0973180F49F730D
:10171000990F990F20914C082370922B90934C08AD
:1017200010921B010E94510B089591E0F1CF96E1B8
:10173000EFCF80914C08869586958F5F873108F0B2
:1017400081E061E00E947C0B089590914C08969591
:1017500096958FEF890F913009F486E161E00E9440
:101760007C0B0895982F822F20914C082370222300
:1017700041F090934D0860934E0840934F080E94AB
:10178000510B0895ECE4F8E0818190E021E0438181
:10179000628108960E94B20B0895ECE4F8E0818122
:1017A00021E0438162818850990B0E94B20B089519
:1017B000ECE4F8E0628120E1620F08F46FEF8181D0
:1017C00021E0438190E00E94B20B0895ECE4F8E040
:1017D000628120E1621B08F460E0818121E04381A5
:1017E00090E00E94B20B0895ECE4F8E0438120E120
:1017F000420F08F44FEF818121E0628190E00E9466
:10180000B20B0895ECE4F8E0438120E1421B08F4B8
:1018100040E0818121E0628190E00E94B20B089556
:10182000ECE4F8E0248130E1230F08F42FEF248367
:1018300081E00E94510B0895ECE4F8E0248130E14E
:10184000231B08F420E0248381E00E94510B0895BB
:10185000109276060895CF93DF93DC01FC01EE0F22
:10186000FF1FEF01CA0FDB1FC055DA4F89818613B6
:1018700006C08881841303C08A81821751F081E0F9
:1018800080937606EA0FFB1FE055FA4F6183408391
:101890002283DF91CF910895FF920F931F93CF93EF
:1018A000DF93182F062FF42EC0E0D0E02F2D402F0D
:1018B000612FCE010E942B0C2196C234D105B1F7C5
:1018C000CDB7DEB7E5E00C94F531FA01882311F0CD
:1018D00009950895FB01FCCFE0910108F091020801
:1018E000309729F00190F081E02D0995089580E06E
:1018F0000895A3E0B0E0EFE7FCE00C94DC319C013C
:1019000080918C0390918D0382179307A1F03093FF
:101910008D0320938C03E0910108F0910208309729
:1019200051F083E089833B832A830084F185E02D95
:10193000CE01019609952396E2E00C94F831A3E0DC
:10194000B0E0E5EAFCE00C94DC319C0180918A0374
:1019500090918B0382179307A1F030938B03209310
:101960008A03E0910108F0910208309751F084E079
:1019700089833B832A830084F185E02DCE01019683
:1019800009952396E2E00C94F83190911A0199237D
:10199000C1F09091580897FF14C0E82FE695E6959E
:1019A000E695803FF8F4F0E0EE5BFC4F877021E0B5
:1019B00030E001C0220F8A95EAF78281822B828370
:1019C0000895A4E6B3E0EFEF90E02D91821751F077
:1019D000EF3F19F4211101C0E92F9F5F9630A9F75D
:1019E000EF3F09F408950E2E000CFF0BEE59FC4F4B
:1019F000E6CF90911A019923E1F09091580897FF52
:101A000018C0E82FE695E695E695803FF0F4F0E003
:101A1000EE5BFC4F877021E030E0A90102C0440F6B
:101A2000551F8A95E2F7CA018095928189238283A6
:101A30000895E4E6F3E09191891303C0DF01119763
:101A40001C9253E0EA36F507B1F70895A4E0B0E040
:101A5000ECE2FDE00C94DC318FB7F89420917B062A
:101A600030917C0640917D0650917E0629833A8311
:101A70004B835C838FBF69817A818B819C812496A3
:101A8000E2E00C94F83187E797E7909301088093A0
:101A9000000888E19AE00FB6F894A895809360005A
:101AA0000FBE90936000FFCF809189030895089541
:101AB000FC019B0180917F0390918003861797071B
:101AC00040F0672B29F48091E8008E778093E8003E
:101AD000C90140E0009741F4411106C08091E8003F
:101AE00082FF2FC080E008952091DE072223A9F114
:101AF0002530A9F12091E80023FD2DC02091E800B8
:101B000022FDECCF2091E80020FFE4CF3091F300DC
:101B10002091F200009719F02830310558F041E08B
:101B20002830310509F040E02091E8002E7720931D
:101B3000E800D0CF41914093F10001972F5F3F4FD4
:101B4000E9CF8091DE07882341F0853041F0809114
:101B5000E80083FFC3CF81E0089582E0089583E029
:101B600008958091790387FF13C08091E80082FF78
:101B700006C08091E8008B778093E80004C08091D4
:101B8000DE078111F2CF08958091DE078823D9F313
:101B90008091E80080FFF8CF8091E8008E77ECCF4D
:101BA0002091E4003091E50095E6A9018091EC00D8
:101BB0008170882331F08091E80080FF06C080E0CA
:101BC00008952091E80022FD1BC08091DE07882344
:101BD00091F0853091F08091EB0085FD10C020914F
:101BE000E4003091E5004217530701F39150911141
:101BF000DCCF84E0089582E0089583E0089581E0D9
:101C00000895E8EDF0E080818E7F80831092E200FD
:101C10001092DA001092E100A0EEB0E08C918160A9
:101C20008C9380818F77808319BCA7EDB0E08C9175
:101C30008E7F8C9380818F7E8083109278030895AD
:101C400090915708892F8D7F80935708292F2570F1
:101C500021110DC091FF0BC09091590892FF07C050
:101C60008695869586950E942606109257080895B7
:101C7000CF92DF92EF92FF921F93CF93DF937C017D
:101C8000609150086695669521E0620F08F46FEF49
:101C900080914707909148070E948F09182F8CE781
:101CA000C82E82E0D82EC0E0D0E0F60181916F010D
:101CB00090910C018923882391F060914D087091D7
:101CC0004E0880914F08212F4C2FF70109950E9453
:101CD0000709462F672F282FCE010E94690B2196F6
:101CE000C234D10511F780E0DF91CF911F91FF90B1
:101CF000EF90DF90CF900895A0E0B0E0E2E8FEE042
:101D00000C94D4316C01609150086695809147071E
:101D1000909148070E948F09182F8CE7A82E82E027
:101D2000B82E98EFE92E91E0F92EC0E0D0E0F50151
:101D300081915F0190910C0189238823C1F0F70103
:101D400021812052330B40814057550B60914D0843
:101D500070914E0880914F08012FF60109950E945D
:101D60000709462F672F282FCE010E94690B219665
:101D7000F2E0EF0EF11CC234D105C9F680E0CDB718
:101D8000DEB7EAE00C94F0314F925F926F927F924F
:101D90008F929F92AF92BF92CF92DF92EF920F936A
:101DA0001F93CF93DF932C0160915008669580912B
:101DB0004707909148070E948F09182F8CE7682EDB
:101DC00082E0782E98EF892E91E0992EA12CB12CEB
:101DD000F30181913F0190910C018923882369F1DE
:101DE000F401C081C057DD0B8181282F2052330BB5
:101DF0006901CC9F9001CD9F300D300D1124CC9CFA
:101E0000C001CD9C900D900D1124820F931F0E9454
:101E10009909082F60914D0870914E0880914F08E4
:101E2000E12E9601AE01F20109950E940709462FA5
:101E3000672F282FC5010E94690BFFEFAF1ABF0A59
:101E400022E0820E911C32E4A316B10409F0C0CF47
:101E500080E0DF91CF911F910F91EF90DF90CF90B5
:101E6000BF90AF909F908F907F906F905F904F90BA
:101E70000895982FE42FE2709093E900891308C029
:101E8000762F242F50E0E11111C091E0980FF4CF8C
:101E90007091EC002091ED005091F00021FD06C002
:101EA0009F5F973049F78093E90008953091EB00E8
:101EB0003E7F3093EB003091ED003D7F3093ED009D
:101EC0003091EB0031603093EB007093EC00209385
:101ED000ED005093F0002091EE0027FDE1CF089532
:101EE000A0E0B0E0E6E7FFE00C94D631C8EDD0E02A
:101EF00088818F7E8883E7EDF0E080818160808338
:101F000084E082BF81E08093780388818E7F88831C
:101F100002EE10E0F80110821092DA0081EEC82E75
:101F2000D12CF601108288818F7788838881806820
:101F3000888388818F7D888319BC1092DE07109278
:101F4000770310928E071092760390EEE92EF12C13
:101F5000F70180818B7F808388818160888342E064
:101F600060E080E00E94390FF60180818E7F8083DF
:101F7000F801808181608083808188608083F7019F
:101F800080818E7F8083888180618883CDB7DEB732
:101F9000E8E00C94F23180917606882341F1539A5F
:101FA0003BB1377F2BB128604FB7F89480EB95E0B9
:101FB000FC010196508168E02BB9000000C057FF7A
:101FC0003BB9550F000000C000C000C03BB900C0C5
:101FD0006A9591F756E08637950751F74FBF8FE521
:101FE00094E00197F1F700C0000010927606089582
:101FF0000F931F93CF93DF93EB018A019091DE073C
:10200000943079F58093E9008FEF9091E80095FD89
:1020100007C095ED9A95F1F7000081508111F5CF39
:102020008091E80085FF1DC00E94D00D811114C071
:102030008091E80085FD06C08091E8008E7780934E
:10204000E800F2CF88818093F10001501109011559
:10205000110511F02196ECCF8091E8008E778093E6
:10206000E800DF91CF911F910F910895CF93DF93F7
:10207000D82FC92F48E050E0682F792F81E00E94C7
:10208000F80F88E0ED2FFC2FA1E8B3E001900D924E
:102090008A95E1F7DF91CF910895BC0140E250E0CD
:1020A00084E00E94F80F0895BC0143E050E084E012
:1020B0000E94F80F08959091590892FB222720F969
:1020C000281771F080FB92F9909359086091580895
:1020D0007091590884E090E00E949D350E94200E86
:1020E00008951F93CF93DF93962F122F632F843081
:1020F000D8F49830C8F44930B8F4C42FD0E0CC0FED
:10210000DD1F22E1929FC00DD11D112490E9899F0E
:10211000C00DD11D1124CE0189960E947F35612FFB
:10212000CE018A960E947F35DF91CF911F9108954D
:102130001F93CF93DF93962F122F632F8430A0F439
:10214000911112C094E0899FE0011124C759DD4F1D
:10215000CE01442369F00E947F3581E090E0612F39
:102160008C0F9D1F0E947F35DF91CF911F910895A5
:1021700002960E947F3583E090E0F1CF8F929F928C
:10218000BF92CF92DF92EF92FF920F931F93CF9364
:10219000DF9392EAE92E99E0F92EC12CD12CC0E010
:1021A0004601D0E014C0F801259134914B2D6D2FDC
:1021B0008C2F0E9471100E5F1F4FB39489E0B812EC
:1021C000F2CF89E0880E911CDF5FD83039F08401AE
:1021D000000F111F0E59184FB12CE5CFF7012591B3
:1021E000349141E060E08C2F0E949810F701329604
:1021F0002591349140E060E08C2F0E94981084E09B
:10220000E80EF11CCF5F88E4C80ED11CC43009F081
:10221000C7CFDF91CF911F910F91FF90EF90DF908B
:10222000CF90BF909F908F900895CF93DF93C9E791
:10223000D2E060E0CE010E947F352196C11584E096
:10224000D807B9F7DF91CF910895CF93882391F004
:1022500063E285E290E00E947F35C2E16C2F86E266
:1022600090E00E947F356C2F87E290E00E947F35DE
:10227000CF9108956FEF85E290E00E947F35CFEF18
:10228000EDCF80E00E94251160E088E290E00E949E
:102290007F350E94BE100E94151181E00E94251119
:1022A00008950F931F93CF93DF93843030F56830F8
:1022B00020F5493010F5C42FD0E0CC0FDD1F22E10E
:1022C000629FC00DD11D112430E9839FC00DD11D27
:1022D0001124CE0189960E946135082F10E0102F3D
:1022E0000027CE018A960E9461359801282BC901EA
:1022F000DF91CF911F910F91089580E090E0F8CF8A
:102300000F931F93CF93DF93843048F5611127C05B
:1023100024E0829F8001112407591D4FC8014423E6
:10232000A1F00E946135C82FD0E0DC2FCC2781E0DE
:1023300090E0800F911F0E9461359E01282BC901FA
:10234000DF91CF911F910F91089502960E94613500
:10235000C82FD0E0DC2FCC2783E090E0EACF80E0EC
:1023600090E0EECF462F672F783038F4493060F494
:10237000843050F40E94511108957D3F41F4411181
:1023800003C041E0843048F080E090E008957C3F55
:10239000D9F74111F9CF8430B8F760E00E9480117D
:1023A0000895A0E0B0E0E7EDF1E10C94D7317C01B5
:1023B0000091560880915508082BC3E0D0E010E04A
:1023C000C8010C2E02C0959587950A94E2F780FD0E
:1023D00009C02197A8F7D12C8D2DCDB7DEB7E7E046
:1023E0000C94F331DC2EB7018C2F0E94B2110E94A5
:1023F000FA07019771F3F0CF0F931F93CF93FC016E
:10240000858100811181882391F0662381F0C801C4
:102410000E94D111C82F682FC8010E948D06B801F3
:102420008C2F0E94B211CF911F910F910895C80176
:102430000E94A706C82FF3CF85E290E00E94613585
:10244000833289F486E290E00E946135823159F44A
:1024500087E290E00E94613591E0823109F090E0DE
:10246000892F8170089580E0FCCFE0EBF3E080E0FD
:1024700092E0DF019C011D9221503040E1F7F09382
:10248000AF03E093AE038FEF9FEF90932B08809301
:102490002A08089580911A01882359F180915808DB
:1024A00087FF27C00E94E1068093430340E250E08B
:1024B00061EE77E082E493E00E949532892BC1F0CF
:1024C00080E2E2E4F3E0A1EEB7E001900D928A959C
:1024D000E1F7E0910108F0910208309749F086E0B9
:1024E000809342030480F581E02D82E493E0099516
:1024F00008950E94E1068093620348E050E063E0A3
:1025000078E082E693E00E949532892B89F388E097
:10251000E2E6F3E0A3E0B8E001900D928A95E1F7DE
:10252000E0910108F0910208309711F30280F381E5
:10253000E02D82E693E0DBCFCF93C82F8823C9F04C
:102540008238C9F40E946C0C81FD13C089E30E949B
:10255000C50C0E944A122FEF37EE83E02150304025
:102560008040E1F700C0000089E30E94F90C0E945E
:102570004A12CF9108958338A1F40E946C0C80FD1B
:10258000F8CF83E50E94C50C0E944A129FEF21EE0E
:1025900034E0915020403040E1F700C0000083E576
:1025A000E4CF8438A1F40E946C0C82FDE2CF87E472
:1025B0000E94C50C0E944A128FEF91EE24E08150D8
:1025C00090402040E1F700C0000087E4CECF8CEFC0
:1025D0008C0F813A90F580911A01882301F1809146
:1025E000580887FF1CC0EC2FE695E695E695F0E0CD
:1025F000EE5BFC4F828190E04C2F477021E030E091
:1026000002C0220F331F4A95E2F782239323892BBE
:1026100081F08C2F0E94F90C0E944A120AC0E4E655
:10262000F3E08AE693E02191C21799F38E179F0792
:10263000D1F78C2F0E94C50C9ACF80E28C0F883086
:1026400068F4C77081E090E001C0880FCA95EAF78E
:10265000C0915408C82BC093540889CF8BE58C0FC8
:10266000833038F42C2F2452330BC9010E94790C8B
:1026700080CFC85ACB3108F07CCFEC2FF0E0EE0FC2
:10268000FF1FE253FD4F808191810E949F0C71CF0B
:10269000882309F454C0823879F40E946C0C81FFBD
:1026A0004EC089E30E94C50C0E944A1289E30E9431
:1026B000F90C0E944A120895833859F40E946C0C58
:1026C00080FF3DC083E50E94C50C0E944A1283E54D
:1026D000EECF843859F40E946C0C82FF30C087E43E
:1026E0000E94C50C0E944A1287E4E1CF9CEF980F2C
:1026F000913AE8F290E2980F983088F4877021E0E0
:1027000030E0A90102C0440F551F8A95E2F7CA01C3
:10271000809590915408892380935408CACF9BE5F3
:10272000980F933028F480E090E00E94790C08958F
:10273000885A8B3120F480E090E00E949F0C08952D
:102740000F931F93CF93C82F00E010E0893311F44B
:1027500000E510E08C2F0E949C120115110539F440
:102760008C2F0E944813CF911F910F9108958FE9EC
:102770009FE00197F1F700C0000001501109EDCF73
:10278000882339F090915408892B809354080E9433
:102790004A120895882341F0809590915408892326
:1027A000809354080E944A12089510925408809110
:1027B0001A018823C1F08091580887FF14C0E4E40F
:1027C000F3E08EE1DF011D928A95E9F780E090E069
:1027D0000E94790C80E090E00E949F0C10925A08B1
:1027E0000E944A120895E4E6F3E086E0EBCF0E94EF
:1027F000D5132FEF84E39CE0215080409040E1F717
:1028000000C0000088E19AE00FB6F894A895809384
:1028100060000FBE90936000FFCFAAE2B0E0E3E15A
:10282000F4E10C94DB3189E793E0FC0101962091FF
:10283000F100208323E081389207B9F780917A0371
:10284000893009F456C0C8F4823009F4B3C083302B
:1028500009F482C0813071F18091E80083FFE7C004
:102860008091790390917A039A3008F0E0C0E92FC3
:10287000F0E0E85FF94C0C9423328A3009F489C007
:102880008B3051F780917903813231F780917D034C
:1028900090917E03892B01F78091E800877F8093D8
:1028A000E8000E94B10D80917B0380931A010E9481
:1028B000D513D2CF80917903813A71F68091E800E7
:1028C000877F8093E80080917D0390917E03892B20
:1028D00061F060E080E090E070E00E94580D80912F
:1028E000E8008B778093E800B7CF68E081E893E059
:1028F000F3CF80917903813209F0AECF80917D03CF
:1029000090917E038D7F892B09F0A6CF8091E800FE
:10291000877F8093E8008091E80082FF18C0909143
:10292000F3008091F200029731F48091F100813040
:1029300011F0863021F48091F10080938903809119
:10294000E8008B778093E8000E94B10D85CF8091DD
:10295000DE078111E0CF80CF80917903813A09F0C1
:102960007BCF80917D0390917E03892B09F074CFFA
:102970008091E800877F8093E8008091E80080FFE5
:10298000FCCF80911A018093F1008091E8008E774E
:10299000D9CF80917903813209F05ECF8091E80030
:1029A000877F8093E8000E94B10D80917C03809323
:1029B000750352CF80917903813A09F04DCF809110
:1029C000E800877F8093E8008091E80080FFFCCFDB
:1029D00080917503D8CF803889F0823841F5809195
:1029E0007D038F70873018F58093E9008091EB00AC
:1029F00085FB882780F91092E90006C08091760354
:102A000090918E07911182609091E800977F90934A
:102A1000E8008093F1001092F1008091E8008E7739
:102A200023C0811116C080917B03813011F1809108
:102A3000E80083FF0AC08091E800877F8093E80068
:102A40008091EB0080628093EB00AA96E3E00C9407
:102A5000F731823061F780917B03882389F01092EF
:102A6000E9008091E800877F8093E8000E94B10D23
:102A7000DECF81E0933009F080E080938E07EFCFC6
:102A800080917D038F702FEF280F263080F6809382
:102A9000E9002091EB0020FFE2CF933031F48091E8
:102AA000EB0080628093EB00DACF9091EB009061B5
:102AB0009093EB0021E030E0A90102C0440F551FC4
:102AC0008A95E2F74093EA001092EA008091EB00C9
:102AD0008860E8CF8111ABCF10917B031F77809185
:102AE000E3008078812B8093E3008091E800877F6A
:102AF0008093E8000E94B10D8091E80080FFFCCF38
:102B00008091E30080688093E30083E0111101C0AD
:102B100082E08093DE078BCF8058823008F087CF29
:102B200040917B0350917C034C3D83E0580799F51D
:102B300083E08A838AE289834FB7F894DE01139693
:102B400020E03EE051E2E32FF0E050935700849103
:102B500020FF03C082958F703F5F8F708A30C8F06E
:102B6000895C90E08D939D932F5F243161F74FBF77
:102B70008091E800877F8093E8006AE270E0CE01F0
:102B800001960E94580D8091E8008B778093E800B1
:102B90004ECF805DE6CF80917D0390917E03252FFF
:102BA00033272330310509F44AC078F52130310547
:102BB00009F479C08BE590E0E3ECF6E022303105D2
:102BC00009F035CF2091E800277F2093E80020917D
:102BD0007F03309180038217930708F49C0140E043
:102BE0002115310509F064C0411162C08091E800EF
:102BF00082FDC9CF8091DE07882329F2853019F242
:102C00008091E80083FFF2CFBECF2132310509F475
:102C10003BC02232310509F00ACF8330910508F01C
:102C200006CFFC01EE0FFF1FED5CFE4F0190F0811F
:102C3000E02D805D9E4FDC018C9190E011C0CA01B7
:102C40009927413089F082309105B1F0892B09F044
:102C5000EECEEEE5F7E0E4918E2F90E0EEE5F7E0C2
:102C6000009709F4E4CEAECFE2E4F7E0E4918E2FD2
:102C700090E0E2E4F7E0F4CFE0E3F7E0E4918E2FB8
:102C800090E0E0E3F7E0ECCF8330910508F0CFCEA1
:102C9000FC01EE0FFF1FE75CFE4F0190F081E02D7D
:102CA00089E090E08FCF82E190E0EEE1F7E08ACF1B
:102CB0008091DE07882309F466CF853009F463CF5D
:102CC0008091E80083FD5FCF8091E80082FD8ECF88
:102CD0008091E80080FF84CF9091F3008091F20012
:102CE0002115310519F08830910550F041E0089721
:102CF00009F040E08091E8008E778093E80070CF83
:102D000044914093F1003196215031090196E8CF6A
:102D1000803809F08CCE8091E800877F8093E800AE
:102D2000809177038093F10078CE811180CE10914D
:102D30007B03123008F07BCE8091E800877F809380
:102D4000E800109377030E94B10D1123D1F084E0C5
:102D50008093DE0742E061EC81E00E94390F42E29D
:102D600061EC84E00E94390F42E261EC82E00E9453
:102D7000390F42E260EC83E00E94390F8091DE0758
:102D800056CE8091E30087FDE2CF81E0E1CFA8E05D
:102D9000B0E0EDECF6E10C94DC3166EE7EEF80E025
:102DA00090E00E949D3560E082E090E00E947F35D7
:102DB00081E08093550861E083E090E00E947F35D8
:102DC00060E074E184E090E00E949D3560E086E080
:102DD00090E00E947F356FEF87E090E00E947F35A2
:102DE00040E050E0BA0188E090E00E94913560E058
:102DF00084E290E00E947F3560E087E190E00E94ED
:102E00007F3560E08CE090E00E947F3560E08DE0EF
:102E100090E00E947F3519821A821B821C821D82DB
:102E20001E821F82188648E050E068E170E0CE0103
:102E300001960E946F3540E050E0BA0180E290E0D8
:102E40000E94913580E00E9425110E94411140E0CE
:102E500050E0BA018FE090E00E94913540E050E0F0
:102E6000BA0183E190E00E9491352896E2E00C944B
:102E7000F83148E050E068E170E08CE498E00E94AE
:102E80006F3510925B070895ECE4F8E085E38083EA
:102E900080911C0190911D01A0911E01818392835C
:102EA000A3838FE784838FEF85830E94391708956A
:102EB000EF92FF920F931F93CF93DF93EC01162FA6
:102EC0000E947C3227E0E22EF12CB7010E940F32E3
:102ED000FC01EE0FFF1FE15BFE4F00810E947C3280
:102EE000B7010E940F32FC01EE0FFF1FE15BFE4FA6
:102EF000F180FE01E458FD4F808190910C018923FF
:102F0000882359F0602F7F2D812F0E940709462FBB
:102F1000672F282FCE010E94690B602F7F2D812FF4
:102F2000CDB7DEB7E6E00C94F431ACE0B0E0EBE90D
:102F3000F7E10C94CC31182F80910F01811325C03B
:102F400020914C08237030E040910E0150E081E068
:102F50002417350709F480E0817080930D0180917A
:102F6000510890910C01981739F080930C0140E0C2
:102F700060E080E00E946C0B173108F047C0E12F41
:102F8000F0E0EE5EF94C0C94233281E0E5CF8091C5
:102F90000D01882309F472C440E060E080E00E94E3
:102FA0006C0B80910B018F5F80930B0182E080930B
:102FB0001B0180910D01882309F465C42C96E2E180
:102FC0000C94E83160914D0870914E0880914F0843
:102FD0000E940709F62EE72ED82EFCE7AF2EF2E06E
:102FE000BF2E00E010E0F50181915F0190910C018E
:102FF0008923882331F02D2D4F2D6E2DC8010E947D
:10300000690B0F5F1F4F0234110569F780910B01A7
:103010008F5F80930B0182E080931B01CFCF1091D3
:103020004D08C0904E0800914F08612F7C2D802FD5
:103030000E940709F62EE72ED82E80915008612FA6
:10304000680F7C2D802F0E940709C62EB72EA82E50
:10305000ECE78E2EE2E09E2E00E010E0F40191916C
:103060004F0180910C018923882359F02A2D4C2D82
:103070006B2D90FD03C02D2D4F2D6E2DC8010E948C
:10308000690B0F5F1F4F0234110541F7BFCFC0908E
:103090004E0890904F082091500850E4D52E3D2DB9
:1030A000329F312D1124D32E6CE7A62E62E0B62E6E
:1030B00079EFE72E71E0F72E00E010E0F501819145
:1030C0005F0190910C018923882399F0F701808199
:1030D00082958F7060914D088D9D600D11247C2D1F
:1030E000892D0E940709462F672F282FC8010E94AB
:1030F000690B0F5F1F4FF2E0EF0EF11C0234110558
:10310000E9F684CF90904E0880904F0820915008A7
:1031100000E4029F012D11243CE7A32E32E0B32EE0
:1031200048EFC42E41E0D42EE12CF12C10E0F50143
:1031300081915F0190910C0189238823C9F0F601E8
:103140002081209FC001219F900D112425E095959D
:1031500087952A95E1F760914D08680F792D882DA4
:103160000E940709462F672F282FC7010E94690B6D
:10317000FFEFEF1AFF0A22E0C20ED11C32E4E31681
:10318000F104A9F643CF00914D0810914E08F0903C
:103190004F0860915008669566956695809147073F
:1031A000909148070E948F09982FE82F96FDE0958F
:1031B0008E2F8F7096FD8F5FE695E695E695E6700B
:1031C000F0E0E95BFE4F2181289F202D812D112405
:1031D00022952F708295807F282B8081820F97FD0A
:1031E000819587FD8195880F482F2F2D429F412D76
:1031F0001124842FB8010E940709F62EE72ED82E3D
:10320000BCE7AB2EB2E0BB2E00E010E0F5018191EF
:103210005F0190910C018923882331F02D2D4F2DD2
:103220006E2DC8010E94690B0F5F1F4F02341105FC
:1032300069F7ECCE88EF99E00E94380E90910B016F
:103240009F5F90930B018111B9CE82E080931B01A7
:1032500080910D018111B2CE1123AECE84E29AE0AD
:10326000EBCF82E59AE00E947C0EE8CF80E79AE0FF
:10327000FACF8FE89AE00E94C40EE0CF8AEA9AE083
:10328000FACF85EC9AE0D8CF87EC9AE0D5CF80EDE5
:103290009AE0D2CF89ED9AE0CFCF82EF9AE0EBCFE0
:1032A00083E09BE0E0CF8CE29BE0DDCF8DE39BE011
:1032B000E2CF6091500820E1620F08F46FEF809137
:1032C0004707909148070E948F096FE170E00E94C4
:1032D000B831892B81F50E947C3262E470E00E9453
:1032E0000F322FEF29838C01112798012D5F384F62
:1032F0007901F9012081211119C0682F6695669521
:103300006695AE014F5F5F4F87700E94570B6091CB
:103310004F08C8010E945817F801EF53F94F608316
:10332000F801E158F94F7083F701808380914607D7
:103330008F5F809346077CE7472E72E0572EEFE7BA
:103340008E2EE6E09E2EF3E0AF2EF7E0BF2EA8EF24
:10335000CA2EA1E0DA2E00E010E0F20181912F01E7
:1033600090910C018923882309F464C020905C07A4
:103370008091460782958F7067E00E940332E92FA3
:10338000F0E0EE0FFF1FE15BFE4F208129873181C6
:103390003A8755E7652E57E0752E6CE5E62E67E017
:1033A000F62E312C8E2DECE5F7E08E1B821508F4FD
:1033B00051C020914F08332D329F312D1124832F7E
:1033C00069857A850E940709462F672F282FC80133
:1033D0000E94690BF801EF53F94F7080F401E0800F
:1033E000F501F080FFEFF983AE014F5F5F4F602F73
:1033F000669566956695802F87700E94570B2E2DD7
:1034000030E0231B08F420E0F40120832F2D31E06D
:10341000231B08F420E0F5012083222359F0672DB7
:103420007E2D8F2D0E940709462F672F282FC80158
:103430000E94690B0F5F1F4FFFEF8F1A9F0A2FEF3C
:10344000A21AB20A32E0C30ED11C0234110509F0EF
:1034500084CFDCCDF6014081F7018181481B550BFB
:10346000F6012181F7018185281B330B449FB001B0
:10347000459F700D700D1124229FC001239F900D58
:10348000900D1124860F971F0E9499098C876091D7
:10349000500821E0620F08F46FEFF30181919191E0
:1034A0003F010E948F09FC858F1B91098F3F910579
:1034B00011F008F08FEF282F2095332D320F08F4EC
:1034C0003FEF332E2FEFE21AF20A6CCF60915008D3
:1034D00020E1620F08F46FEF809147079091480751
:1034E0000E948F096FE170E00E94B831892B31F59D
:1034F0000E947C322FEF298362E470E00E940F3239
:103500008C011127C8018D5F984F7C01FC018081DF
:1035100081110FC060914F08C8010E945817F8012F
:10352000EF53F94F6083F801E158F94F7083F701C9
:103530008083809146078F5F8093460721EC36E0B9
:103540003B872A879FE7692E96E0792E23E0422E5B
:1035500027E0522E38EF832E31E0932EC12CD12C50
:1035600020905C07222D31E0231B08F420E0322E4E
:10357000822F90E0FC01E35AF84F5F01321408F407
:1035800043C0EA85FB85F190FB87EA87F30101914F
:103590003F01F20111912F01FFEFF983AE014F5F5F
:1035A0005F4FB601E3E075956795EA95E1F78C2DDD
:1035B00087700E94570B202F30E0231B08F420E077
:1035C000F30131972083212F41E0241B08F420E0F0
:1035D000F20131972083222359F06F2D702F812F14
:1035E0000E940709462F672F282FC6010E94690BEA
:1035F0008FEFC81AD80A92E0890E911CE2E4CE1629
:10360000D10409F0ADCF02CDF50181915F01F40144
:10361000E080E81AFF080181F5018781081B110B82
:10362000EE9C9001EF9C300D300D1124009FC001E5
:10363000019F900D900D1124820F931F0E949909F4
:1036400089876091500821E0620F08F46FEFF5015F
:10365000EE0FFF1FEC55F740858996890E948F0970
:103660009C0140E2E40EF11C81E4E816F104A8F5A7
:10367000005E1F4F0134110510F094E69987C901CF
:10368000F9858F0F911D880F991F880F991F8F3F04
:10369000910511F008F08FEF282F209530E0320FC0
:1036A00008F43FEF3323B9F029852032A0F480914C
:1036B000460767E00E940332E92FF0E0EE0FFF1F9C
:1036C000E15BFE4F81819081EA85FB859083F30168
:1036D0008083F2013083339451CFE4E6E987CFCF82
:1036E0006091500820E1620F08F46FEF8091470766
:1036F000909148070E948F096FE170E00E94B831F5
:10370000892B29F4809146078F5F8093460710919B
:1037100045071234E8F460914D0870914E082091ED
:103720004F08229F212D1124822F0E940709462F26
:10373000672F282FE12FF0E0E35AFE4F808190E0C1
:103740000E94690B809145078F5F809345075ECC8F
:103750003CE7A32E32E0B32E48EFC42E41E0D42E36
:1037600000E010E05CE5652E57E0752EF5018191D3
:103770005F0190910C018923882399F120905C07C7
:103780008091460782958F7067E00E940332E92F8F
:10379000F0E0EE0FFF1FE15BFE4F308021812987B3
:1037A00095E7892E97E0992E2CE5E22E27E0F22E60
:1037B000512C8E2D86198215F0F030914F08511042
:1037C00055C070914E08339F312D112460914D08E2
:1037D000832F0E940709462F672F282FC8010E94B8
:1037E000690B0F5F1F4F22E0C20ED11C023411057E
:1037F00009F0BCCF0BCCF6014081F7018181481B59
:10380000550BF6012181F7018185281B330B449F5D
:10381000B001459F700D700D1124229FC001239FA0
:10382000900D900D1124860F971F0E949909482E24
:103830006091500821E0620F08F46FEFF40181916C
:1038400091914F010E948F09841991098F3F910531
:1038500011F008F08FEF282F2095352D320F08F446
:103860003FEF532EFFEFEF1AFF0AA3CF252D239F23
:10387000212D1124632D7985822FABCF80910B01EF
:103880008F5F80930B0183E0C7CB4F925F926F9263
:103890007F928F929F92AF92BF92CF92DF92EF92E0
:1038A000FF92C0907706D0907806E0907906F0906D
:1038B0007A068FB7F89440907B0650907C06609013
:1038C0007D0670907E068FBF530142018C189D08C3
:1038D000AE08BF080E94260D282F609377067093CC
:1038E00078068093790690937A06A0918F07EFE887
:1038F000F7E08A2F30E04FEFC40ED41EE11CF11C1C
:10390000C418D508E608F708A3132EC080938F07C4
:1039100080918D0781113BC030914C08832F8370BB
:10392000882319F0832F8695869530911B013230BC
:1039300009F441C070F531113BC010920B01609346
:103940004707709348072093490790934A0789E2F5
:10395000EFE8F7E0ACE5B7E001900D928A95E1F76A
:1039600081E080931B0117C0418D528D2A01612C8B
:10397000712CC414D504E604F70420F481503F5F91
:103980003296C2CF480D591D528F418FF8CF80E03B
:10399000CCCF333099F0FF90EF90DF90CF90BF9075
:1039A000AF909F908F907F906F905F904F90089511
:1039B0000E949517F0CF0E946F0BEDCF80915B07AF
:1039C00081110E9439174091470750914807609133
:1039D000490770914A072FB7F89480917B06909120
:1039E0007C06A0917D06B0917E062FBF841B950BAF
:1039F000A60BB70B4097A105B10568F210921B0109
:103A0000CACFA0E0B0E0E7E0FDE10C94D6317C0144
:103A10006B0164E670E088E70E94C330EC0197FD1B
:103A200012C000E010E0F701E00FF11F849164E69E
:103A300070E00E943231EC010F5F1F4FC016D106BB
:103A400011F097FFF0CF0E94B43181E0CD2B09F047
:103A500080E0CDB7DEB7E8E00C94F23180912D081C
:103A6000882369F080918507882349F062E070E03F
:103A700081E891E00E94011D81111092850708954F
:103A8000A4E0B0E0E6E4FDE10C94DC3180912D0887
:103A90008823F9F00E94260DDC01CB01805A954164
:103AA000AF4FBF4F8093860790938707A0938807F7
:103AB000B09389078091850781110BC062E070E0A7
:103AC0008FE791E00E94011D882319F081E0809327
:103AD00085072496E2E00C94F831CF93DF93682FAA
:103AE00081E06A3019F06D3031F480E00E94ED1D04
:103AF000DF91CF9108958091AE039091AF0326E0BE
:103B0000FC01AFE6B3E001900D922A95E1F7603E2B
:103B100008F458C026E0FC0111922A95E9F7C091FB
:103B2000AE03D091AF0346E050E0BE018FE693E0D4
:103B30000E9495329E01205B3340892B41F1C901DF
:103B400045E0969587954A95E1F741E050E0BA0146
:103B500002C0660F771F8A95E2F7CB0160912A08B1
:103B600070912B08862B972BB9016B5F7F4FE5E097
:103B700076956795EA95E1F702C0440F551F6A955F
:103B8000E2F7842B952B90932B0880932A082A5FC9
:103B90003F4F40918A07642F70E0C9010E94B831FD
:103BA000481B463010F4240F311D211572E03707F1
:103BB00010F020E030E020553C4F3093AF032093CD
:103BC000AE0396CFF6E06F9FB00111246D577E4F84
:103BD00046E050E00E948C32A2CFCF93382FE09184
:103BE000AE03F091AF03E05BF34020918A07622FB0
:103BF00070E0CF010E94B831281B822F332361F07F
:103C000066E00E940332C82FC15010F4CF9108958E
:103C100080E20E946D1DF8CF9F01280F311D2115F4
:103C2000324018F080E0E0E0F0E08E0F9F2F911D11
:103C300080559C4F9093AF038093AE03E7CFCF9313
:103C4000DF93EC01FE018491811103C0DF91CF91DC
:103C500008950E946D1D2196F5CFADE0B0E0E3E33D
:103C6000FEE10C94CD3180912D08882309F463C0C6
:103C700080EB93E09093AF038093AE03809148086C
:103C800090914908009709F47CC0019790934908E6
:103C900080934808892B09F474C08DE09AE00E9453
:103CA0001F1E80915608843009F462C008F047C096
:103CB000882309F452C0823009F457C0EEE2F8E0DC
:103CC00001900020E9F78F01015011095EE2E52E15
:103CD00058E0F52EE016F10608F44DC080912A0850
:103CE00090912B08892B21F080912D08811159C0CA
:103CF000809185078823F9F00E94260D6A877B87CB
:103D00008C879D878091860790918707A09188076F
:103D1000B09189072A853B854C855D85281B390B29
:103D20004A0B5B0BDA01C9018F3F9F4FAF4FBF4773
:103D300010F40E942E1D2D96E1E10C94E93188507B
:103D4000873008F0BBCF95E501C096958A95EAF7D4
:103D500090FFB4CF82EF99E002C085E09AE00E9424
:103D60001F1E81E00E94ED1DA9CF8FEF99E0F7CFD4
:103D700089EF99E0F4CFD7018D917D010E946D1DEF
:103D8000A9CF82EB99E00E941F1E80912D08882305
:103D900009F4A4CF80912A0890912B08892B09F46B
:103DA00067C080912C088111A3CF0E94401D2091F3
:103DB0002A0830912B0880E061E070E02115310580
:103DC00009F496CF082F10E07B01082E02C0EE0CFC
:103DD000FF1C0A94E2F7A70142235323452B09F461
:103DE00069C090918B0790FD67C098013695279523
:103DF00036952795922F8295880F80763FE1380F70
:103E000080930601209309013093070190930A01E2
:103E100024E630E047E050E064E071E088E70E948B
:103E20006231892B09F064CFA80125E0440F551FAA
:103E30002A95E1F780918B0780FD46C040555C4F85
:103E400004E610E020E230E060E488E70E94893177
:103E5000892B09F04DCFE094F09480912A0890913D
:103E60002B08E822F922F0922B08E0922A0840CF92
:103E700080912C0881113CCF198287E28A831B82B2
:103E80001C821D8287E08E831F828FEF88878FE2DE
:103E9000898724E630E049E050E0BE016F5F7F4F44
:103EA00088E70E946231892B09F018CF81E0809366
:103EB0002C0814CF8F5F86CF880F880F880F37E0CC
:103EC000380F20E093E09CCFEEE8F3E080E2DF01E2
:103ED0001D928A95E9F7E3E4F1E0FB87EA870FE3B7
:103EE00011E087E4A82E81E0B82E97E0392E442413
:103EF0004394AA85BB858D91BB87AA87F801219140
:103F00008F01240F352F311D20553C4FE82FF0E055
:103F1000E257FC4F80E090E0632C681A742C082E66
:103F200001C0770C0A94EAF76901812CD6019D90B3
:103F30006D019720662D6819677070E0B92D062E07
:103F400001C0BB0F0A94EAF75B2E71956195710968
:103F50006770772701C096946A95EAF759286081BF
:103F6000562A5082839468E08612E0CF01963196FB
:103F70008830910589F68A859B85A816B90609F0CF
:103F8000B8CF04E610E020E230E04EE853E05CCF2A
:103F90001F921FB61F9211248F939F93AF93BF93CD
:103FA00080918C07811113C080917B0690917C06D3
:103FB000A0917D06B0917E064196A11DB11D809312
:103FC0007B0690937C06A0937D06B0937E06BF91FE
:103FD000AF919F918F911F901FBE1F9018952FB783
:103FE000F89480917B0690917C06A0917D06B0911B
:103FF0007E062FBF08959C014FB7F89480917B06F1
:1040000090917C06A0917D06B0917E064FBF821BE9
:10401000930B08950F931F93CF93DF93C62FD42F45
:10402000122F8823A9F060934A080E94EF1F9093F3
:104030006E0380936D03C77081E001C0880FCA953D
:10404000EAF70E94C013DF91CF911F910F9108955D
:1040500080914A08681332C080916D0390916E037D
:104060000E94FB1F883C910548F5CD130CC0812FA1
:104070000E94A013D77081E001C0880FDA95EAF79B
:104080000E94CA13E0CFC77001E0802F01C0880FE3
:10409000CA95EAF70E94CA1380E28D0F883050F467
:1040A0008D2F877001C0000F8A95EAF7802F0E943C
:1040B000C013DDCF812F0E94A013C5CFC77081E050
:1040C00001C0880FCA95EAF7DBCFA8E0B0E0EBE6C5
:1040D000F0E20C94D0317C01DC0114968C918823A1
:1040E00009F4A9C061E0C7010E94FC118C01F7012D
:1040F0008581882309F487C1C801975780389105C5
:1041000008F035C1003108F087C08FEF93E00E94BE
:104110006135811181C039E7C32E32E0D32E011100
:104120004AC01A821982FE01339686E0DF011D9291
:104130008A95E9F72AE0622E5601BFEFAB1ABB0A57
:10414000C6010E94613589831A82882309F464C0FC
:10415000813009F074C086010E5F1F4FC5010E94B7
:1041600061358A83882309F457C09FEF980F9330F5
:1041700088F5E3E0CE0ED11CC8010E9461358B8327
:10418000882309F449C01C828E010F5F1F4FD8019C
:104190008C91882389F2813009F08CC011969C9112
:1041A000119712968C91913009F04BC00E5F1F4F02
:1041B0000E94A0134CC0C114F4E0DF0669F1C601EF
:1041C0000E94613596012F5F3F4F69018111F3CF46
:1041D0000150A5CF8430B9F492E0C92ED12CC8018A
:1041E0000F5F1F4F0E946135E1E0F0E0EC0FFD1F13
:1041F000EC0DFD1D8083882379F08C3731F4FE01AE
:10420000EC0DFD1D12826801BFCFFFEFCF1ADF0A50
:1042100027E0C216D10419F78091570887708823C8
:1042200051F0D70115968C91882329F08091590877
:1042300082FD0E94200E2896EEE00C94EC31650180
:10424000A3CF923039F40E5F1F4F0E949C120F5F74
:104250001F4F9DCF933029F40E5F1F4F0E944813CC
:10426000F6CF943019F00F5F1F4FF1CF0E5F1F4F45
:1042700020E030E0A8014F5F5F4F8053990B8A30F8
:10428000910560F02115310511F38FE99FE0019749
:10429000F1F700C0000021503109F4CF629EB00157
:1042A000639E700D11249C01260F371FF801818138
:1042B0008A01E0CFE82FF0E0E959F44F7490282FFD
:1042C00026952695269530E0F901E95AF44F949108
:1042D0008770F901E95BF44FA490B12C082E02C05D
:1042E000B594A7940A94E2F7A1E0AA22BB24F901AD
:1042F000E95CF44F8490912C082E02C09594879429
:104300000A94E2F7B1E08B229924292F30E002C011
:10431000359527958A95E2F720FD0BC0AB28E9F487
:10432000872D0E94A0138114910409F490CF8CE290
:104330003FCF81EE0E949C12AB2829F4872D0E946A
:10434000A01381EE11C086EE0E949C12872D0E9460
:10435000A01386EE0E944813F4CF86EE0E949C12B2
:10436000872D0E94A01386EE0E944813DCCF809117
:104370002D088823A1F080912C08882381F062E029
:1043800070E087EE9BE00E94011D882341F01092AF
:104390002C088FEF9FEF90932B0880932A080E94A0
:1043A00035128CE291E09093490880934808F70118
:1043B00040813181C80190528115904388F5C80130
:1043C000992720E28C33910520F4FC01EC5FFC4F2F
:1043D00020811F922F939F938F931F924F931F9231
:1043E0003F938FE191E09F938F931F9288E18F938A
:1043F0008EE298E09F938F930E94B2320FB6F894AA
:10440000DEBF0FBECDBFD70115968C91F801FE57C8
:10441000EF30F10508F0CAC2E75DF94C0C94233285
:10442000C801CFCF882309F4F7CE80916203982F7B
:10443000927021E0911101C020E020934708807222
:1044400021E0811101C020E02093460891111BC09A
:10445000882309F185EE0E9448138FE20E949C1286
:104460008FE20E94481380914708882319F081EE5B
:104470000E949C1280914608882309F4CDCE85EED7
:104480000E949C12C9CE81EE0E944813809146087A
:10449000882319F3DFCF8FE10E949C128FE10E94E5
:1044A0004813BACE882309F4B7CE80916203982FBF
:1044B000927021E0911101C020E0209347088072A2
:1044C00021E0811101C020E02093460891110AC02B
:1044D000882381F085EE0E9448138EE20E949C1290
:1044E0008EE2BFCF81EE0E94481380914608882358
:1044F000A1F3F0CF83E20E949C1283E2D0CF882305
:1045000009F48ACE80916203982F927021E0911174
:1045100001C020E020934708807221E0811101C092
:1045200020E020934608911110C08823B1F085EE59
:104530000E94481381EE0E949C1283E20E949C120A
:1045400083E20E94481381EE8CCF81EE0E944813D3
:1045500080914608882371F3EACF84E20E949C127E
:1045600084E29DCF882309F457CE80916203982F6F
:10457000927021E0911101C020E0209347088072E1
:1045800021E0811101C020E02093460891110DC067
:10459000882399F085EE0E94481381EE0E949C12B8
:1045A00084E30E949C1284E3CCCF81EE0E944813E6
:1045B00080914608882389F3EDCF85E20E949C1202
:1045C00085E26DCF882309F427CE80916203982F6E
:1045D000927021E0911101C020E020934708807281
:1045E00021E0811101C020E02093460891110DC007
:1045F000882399F085EE0E94481381EE0E949C1258
:1046000085E20E949C1285E29CCF81EE0E944813B5
:1046100080914608882389F3EDCF86E20E949C12A0
:1046200086E23DCF882309F4F7CD80916203982F6D
:10463000927021E0911101C020E020934708807220
:1046400021E0811101C020E02093460891110DC0A6
:10465000882399F085EE0E94481381EE0E949C12F7
:1046600086E20E949C1286E26CCF81EE0E94481383
:1046700080914608882389F3EDCF87E20E949C123F
:1046800087E20DCF882309F4C7CD80916203982F6C
:10469000927021E0911101C020E0209347088072C0
:1046A00021E0811101C020E02093460891110DC046
:1046B000882399F085EE0E94481381EE0E949C1297
:1046C00087E80E949C1287E83CCF81EE0E94481345
:1046D00080914608882389F3EDCF8DE20E949C12D9
:1046E0008DE2DDCE882309F497CD80916203982F67
:1046F000927021E0911101C020E020934708807260
:1047000021E0811101C020E02093460891110DC0E5
:10471000882399F085EE0E94481381EE0E949C1236
:1047200083E30E949C1283E30CCF81EE0E94481326
:1047300080914608882389F3EDCF81EE0E949C1278
:104740008DE20E949C128DE20E94481381EEA7CE5A
:10475000882309F461CD80916203982F927021E043
:10476000911101C020E020934708807221E081115F
:1047700001C020E02093460891110DC0882399F0D4
:1047800085EE0E94481381EE0E949C1280E30E94F5
:104790009C1280E3D6CE81EE0E9448138091460899
:1047A000882389F3EDCF80E30E949C1280E377CECB
:1047B000882309F431CD80916203982F927021E013
:1047C000911101C020E020934708807221E08111FF
:1047D00001C020E02093460891110DC0882399F074
:1047E00085EE0E94481381EE0E949C1282E30E9493
:1047F0009C1282E3A6CE81EE0E9448138091460867
:10480000882389F3EDCF82E30E949C1282E347CE96
:10481000882309F401CD80916203982F927021E0E2
:10482000911101C020E020934708807221E081119E
:1048300001C020E02093460891110DC0882399F013
:1048400085EE0E94481381EE0E949C1289E80E9426
:104850009C1289E876CE81EE0E944813809146082A
:10486000882389F3EDCF87E80E949C1287E817CE52
:10487000882309F4D1CC80916203982F927021E0B3
:10488000911101C020E020934708807221E081113E
:1048900001C020E02093460891110AC0882381F0CE
:1048A00085EE0E94481384E30E949C1284E3D9CDD4
:1048B00081EE0E944813809146088823A1F3F0CF2F
:1048C00083E30E949C1283E3EACD882309F4A4CCFD
:1048D00080916203982F927021E0911101C020E035
:1048E00020934708807221E0811101C020E02093CD
:1048F000460891110DC0882399F085EE0E94481357
:1049000081EE0E949C128FE10E949C128FE119CED1
:1049100081EE0E94481380914608882389F3EDCFE9
:1049200081EE0E949C1284E20E949C1284E20CCFD1
:10493000882309F471CC80916203982F927021E052
:10494000911101C020E020934708807221E081117D
:1049500001C020E02093460891110DC0882399F0F2
:1049600085EE0E94481381EE0E949C128EE20E9406
:104970009C128EE2E6CD81EE0E944813809146089B
:10498000882389F3EDCF81EE0E949C128FE20E9472
:104990009C128FE2D9CE882309F43ECC81EE0E948E
:1049A0009C1289E30E949C1289E3CECEF801E85163
:1049B000FC47E730F10508F5E85CF94C0C9423322C
:1049C00026E241EE61EE0E940A2026CC27E245EE67
:1049D00065EEF9CF26E241EE60EEF5CF27E245EE37
:1049E00064EEF1CF26E241EE62EEEDCF27E245EE36
:1049F00066EEE9CF28E241E0EBCF81110DC0063130
:104A0000BCE71B0709F0F7C080914B088111F1C08A
:104A100089E20E94F90C19C010924A08C801905707
:104A20008397B0F00631ECE71E0709F040C1809192
:104A300054088A7A91E0811101C090E090934B086C
:104A40008111D5C089E20E94C50C0E944A12E4CBB4
:104A500084E090E00E94693590935908809358084B
:104A6000F801E150F047E232F10520F4E15CF94C45
:104A70000C9423328091580881608093580860918B
:104A800058087091590884E090E00E949D350E947A
:104A9000D513C2CB80915908886080935908EFCF15
:104AA000809158088260E9CF809158088460E5CFF2
:104AB000809158088860E1CF809159088160EDCFDE
:104AC000809159088260E9CF809158088061D5CFE4
:104AD000809158088062D1CF809158088064CDCFF2
:104AE0000E94D513809158088068C7CF80915808DC
:104AF0008C60C3CF809159088360CFCF80915808D4
:104B00008E7FBBCF80915908877FC7CF809158088F
:104B10008D7FB3CF809158088B7FAFCF809158089D
:104B2000877FABCF809159088E7FB7CF809159088E
:104B30008D7FB3CF809158088F7E9FCF809158088A
:104B40008F7D9BCF809158088F7B97CF0E94D51384
:104B5000809158088F7791CF80915808837F8DCFAF
:104B6000809159088C7F99CF8091580882FB9927B2
:104B700090F921E0922790FB82F990FB83F97DCF99
:104B800080915908982F909591708E7F892B90FB7A
:104B900081F983CF90915808892F8F7B96FF80648D
:104BA0006CCF0E94D51390915808892F97FB87F9F5
:104BB000805863CF61E08EE090E00E947F355FCF48
:104BC00060E0F9CF90915808892F8F7E94FF806123
:104BD00054CF90915808892F8E7F90FF81604DCFE0
:104BE00090915908892F877F93FF886056CF85E37E
:104BF0002ACF85E30ECF809154088272F801E052EB
:104C0000F847E531F10508F07EC0EF59F94C0C94F6
:104C1000233280914C0891E0892780934C081092B0
:104C20001B0181E00E94510BF7CA45EA5BE069E98C
:104C30007BE00E94650CF0CA49E95BE065EA7BE035
:104C4000F8CF4DEC5BE062EC7BE0F3CF42EC5BE055
:104C50006DEC7BE0EECF46EE5BE068ED7BE0E9CF0C
:104C600048ED5BE066EE7BE0E4CF42E05CE064EFC1
:104C70007BE0DFCF44EF5BE062E07CE0DACF4CE149
:104C80005CE060E17CE0D5CF40E15CE06CE17CE0A1
:104C9000D0CF61E081E00E947C0BBECA61E085E07C
:104CA000FACF61E08DE0F7CF61E082E1F4CF073722
:104CB000FCE71F0709F494C082E008372CE71207CD
:104CC00009F48FC00A358CE7180709F4B0C008F062
:104CD00094C00130ACE71A0709F4A7C00330BCE761
:104CE0001B0709F49CC001151C47C1F40E94D51391
:104CF0003FEF44E38CE0315040408040E1F700C09A
:104D000000000E94430D07373CE7130709F471C008
:104D100082E008374CE7140709F46CC0F70185817D
:104D2000C080D180882309F486C0C6010E94D111B9
:104D3000182F682FC6010E948D06B601812F0E9490
:104D4000B2110E94FA07C82E192FD70115960C919F
:104D50008091570887708823B9F0D02E0023A9F0DE
:104D6000892F807F803421F080E28C0D883060F0C4
:104D70008091590882FF08C00E94200E8091570838
:104D80008770DD24D3948111D12C812F82958F706F
:104D9000883009F4C3C008F053C0823008F463C0FF
:104DA000843009F49EC0DD20B1F08091570880FD69
:104DB00012C0D70115961C928695869586950E94FD
:104DC0001A06C7010E94652080915708869586952E
:104DD00086950E94260660E0C7010E94FC112BCA3E
:104DE00081E00E941A0643E062E081E00E94C00672
:104DF00013CA81E00E942606F6CF0B35FCE71F0799
:104E0000C1F00C351C4709F089CF8091590882FB0D
:104E1000882780F991E089270E945B107FCF6FEF90
:104E20007FEF80E090E00E949D350E94F71381E0C3
:104E3000F3CF80E0F1CFC6010E94A706182F7DCFE7
:104E4000893009F4E0C08A5F8F70823008F0ABCF00
:104E5000B2EFCB12E9C0812F8F71002309F4EFC0AC
:104E60000E942606A0CFE12FEF70BE2E103118F061
:104E7000B29480EFB8220023C9F0BB2069F080E231
:104E80008C0D883010F0C1100BC0809154088B2914
:104E9000809354080E944A128C2D0E949C1283CF4A
:104EA00080915A088B2980935A08F4CF8C2D0E9448
:104EB0004813BB2009F477CFB09480E28C0D883082
:104EC00010F0C11008C0809154088B2180935408C1
:104ED0000E944A1268CF80915A088B2180935A0809
:104EE000F7CF812F869586958370882369F081306E
:104EF00009F059CF8C2D912F9370011102C080E0E1
:104F000090E00E949F0C4FCF8C2D912F9370011138
:104F100002C080E090E00E94790C45CF812F837021
:104F2000811137C001112AC04C2D4295469547701A
:104F3000440F440F2C2D2F70042E01C0220F0A9411
:104F4000EAF79C2D9071992341F08FE090E001C029
:104F5000880F4A95EAF7982F909516951695137035
:104F6000123091F0892F822B133031F08091550847
:104F7000113039F0292B82230E9414060E946C0CF8
:104F800012CF822B892BF8CF292B809155088227AD
:104F9000F3CF002369F110FFF1CF4C2D42954695D8
:104FA0004770440F440F2C2D2F70042E01C0220F88
:104FB0000A94EAF79C2D9071992341F08FE090E0DC
:104FC00001C0880F4A95EAF7982F90951695169587
:104FD0001370123099F0892F822B133031F08091A9
:104FE0005608113041F0292B82230E941706C6CFA4
:104FF000823020F2D2CF822B892BF7CF292B8091C0
:1050000056088227F2CF1F70002339F0812F0E94AB
:105010001A068C2D0E94C013B1CF8C2D0E94CA138A
:10502000812F0E942606AACFF3EFCF1659F021EF69
:10503000C21215C0812F8F71002309F411CF0E9475
:105040001A06B1CE80E0002339F01F7181E0012EF5
:1050500001C0880F0A94EAF70E941706A4CE011136
:105060001BCF39E3C31209C04FEF87EE93E04150E5
:1050700080409040E1F700C000008C2D0E94481352
:1050800092CEACE0B0E0E7E4F8E20C94DA314F8382
:10509000588769877A878B879C87911110925A0865
:1050A00026E0FE013796CE010196DC0101900D92BB
:1050B0002A95E1F72D818C01222319F061E00E94ED
:1050C000FC11C8010E9465202C96E4E00C94F63196
:1050D000A6E0B0E0EEE6F8E20C94DA310E94EF1FB1
:1050E0008C018091DF079091E0078017910779F09C
:1050F00019821A820E94EF1FBC0149815A8180E007
:1051000090E00E9441281093E0070093DF07269665
:10511000E4E00C94F631A4E0B0E0E1E9F8E20C94AC
:10512000CC313BE4232E37E0332E4FE951E0B12C54
:1051300001E010E0D1016D907D901D01FD01129202
:105140001292FA83E983DA018D91AD01E82FE2959D
:10515000EF70F0E091A18F70680101C0CC0C8A95CE
:10516000EAF7892F8C2981A382A15C2C5094852198
:1051700082A3B0EABA95F1F767EA71E07B0120E01B
:1051800030E0D701AD907D018A2D82958F70805ED1
:1051900090E0DC018C91A981BA818D909C9090E087
:1051A000BA2DBF7002C095958795BA95E2F780FD3C
:1051B000A8C0C801022E02C0880F991F0A94E2F706
:1051C00088299929A981BA8111969C938E932F5F82
:1051D0003F4F29303105A9F681A1582251A282A161
:1051E0008C2982A381E02D913C912615370509F485
:1051F00080E0B82AB3E52B16B7E03B0609F09ACF5A
:1052000080E090E001E010E023EA422E21E0522EFF
:10521000FB012191BF01E22FE295EF70F0E031A197
:105220002F70480102C0880C991C2A95E2F7232FA1
:10523000282921A322A1A82CA0942A2122A320EA74
:105240002A95F1F77801082E02C0EE0CFF1C0A9493
:10525000E2F7370160947094A3E5B7E0BC83AB83B9
:105260002FE931E03A832983312CAB81BC814D9108
:105270005D91BC83AB83A981BA81DD90BA83A98398
:105280002D2D22952F70205E30E0D9012C9130E039
:10529000BD2DBF7002C035952795BA95E2F720FD68
:1052A00033C09A012E293F29CB80DC80A2E0CA1AA4
:1052B000D108D6012D933C934217530711F03324A4
:1052C000339429813A814216530679F621A1A2220C
:1052D000A1A222A1282922A3B328019689309105F1
:1052E00009F096CFBB20A1F081E080936C030E946F
:1052F000EF1F90936B0380936A032496E2E10C9472
:10530000E83180E090E05CCF9A0126213721CCCFB4
:1053100080916C03882389F380916A0390916B03D9
:105320000E94FB1F059748F340E150E06BE477E0F3
:105330008EEC97E00E949532892B49F080E1EBE4F6
:10534000F7E0AEECB7E001900D928A95E1F710928C
:105350006C03D3CFCDB7DEB7C054D1090FB6F894E4
:10536000DEBF0FBECDBF85B7806885BF85B78068BB
:1053700085BF84B7877F84BF0FB6F894A8958091C6
:105380006000886180936000109260000FBE80E82A
:1053900090E00FB6F89480936100909361000FBE87
:1053A00085E099E090934103809340030E94010EB1
:1053B0000E94700F8091E20084608093E2007894F4
:1053C0008091DE07882399F08091E9001091EC002C
:1053D0001795112717958F70182B1092E90080915F
:1053E000E80083FD0E940D141F701093E90082E015
:1053F00084BD93E095BD9AEF97BD80936E000E94A7
:105400001C12811102C00E94411181E08093CB07E0
:1054100025982D9A26982E9A8FE891E00197F1F71A
:1054200000C000002091CB074CEC57E0FA018E2F12
:10543000841B821708F4D4C0EFE9F1E027EA31E0D9
:10544000AF0161E070E0DA018D91AD01A82FA29566
:10545000AF70B0E091961C9191978F705B0102C084
:10546000AA0CBB1C8A95E2F7C5019A2D9095912351
:1054700091969C93919792969C919297892B929654
:105480008C9324173507F9F647EA51E060EB71E099
:105490008A01EE24E394F12CD8018D918D01A82F7F
:1054A000A295AF70B0E09196DC9091978F70570104
:1054B00002C0AA0CBB1C8A95E2F7C5019A2D9095F3
:1054C0009D2191969C93919792969C919297892B6E
:1054D00092968C9360177107F9F601E010E0DA01FB
:1054E0008D91AD01A82FA295AF70B0E09196FC9080
:1054F00091978F70580102C0AA0CBB1C8A95E2F7E5
:10550000C5019A2D90959F2191969C939197929683
:105510009C919297892B92968C9364177507F9F654
:1055200041E050E08191A82FA295AF70B0E0919634
:105530006C9191978F706A0102C0CC0CDD1C8A952A
:10554000E2F7C6019C2D9095962391969C93919796
:1055500092969C919297892B92968C932E173F0747
:1055600009F780E1EBE4F7E0DF01A82E1D92AA9491
:10557000E9F7EEECF7E0DF011D928A95E9F780E0AC
:1055800090E00E946935863E9E4F21F40E941C12D5
:10559000811102C00E94C71682E090E00E9461352E
:1055A0008093B80784E090E00E9469359093590891
:1055B000809358080E948B28EFE3FCE93197F1F7BC
:1055C00000C000000E948B288091CE0780FF14C08D
:1055D0006FEF7FEF80E090E00E949D350E94430DC9
:1055E00093B183B186FB882780F9880F95FB9927B3
:1055F00090F9892B81931BCF83E090E00E94613565
:105600000E9414060E94280C10925C0740E150E0B2
:105610006FEF70E085E797E00E94AB3210928F0742
:1056200040E150E06FEF70E088EA97E00E94AB3213
:1056300080E090E00E946935863E9E4F21F40E94F2
:105640001C12811104C00E94C7160E94441781E0F9
:1056500080935B0748E050E068E170E08CE498E0FC
:105660000E94513510925B0780914C08843010F4F1
:105670000E94441710928B0780E880938A070E944B
:10568000BD306BE070E08CE29BE00E94011D88233E
:1056900089F180918B0765E070E081FDD9C087E2D8
:1056A0009BE00E94011D882329F16DE070E085E1F7
:1056B0009BE00E94011D8823E9F00E94260D69AF3E
:1056C0007AAF8BAF9CAFDC01CB01805A9541AF4FD5
:1056D000BF4F8093860790938707A0938807B09366
:1056E00089070E94351281E080932D0880938507F9
:1056F00010922C0880E191E09093020880930108B9
:10570000AA24A3948E010F5F1F4F18010DAF3EAE68
:105710008091DE0710E4853009F4F2C00E948B28E6
:1057200049EB642E47E0742E0EEC17E01AAF09AF78
:1057300049EC57E0D801F301219131918D919D9170
:105740004E175F0709F400C128173907A9F3F12C98
:10575000A9ADBAAD4D905D90BAAFA9AFF3018191FB
:1057600091913F018415950509F443C16C01C4244E
:10577000D5242196DFAECEAE2197B12CCC24C39494
:10578000D12C21968EAD9FAD21978C219D21892B07
:1057900009F425C182010C211D21B982FA820E94DF
:1057A000EF1F9C838B83EE24E394ED8291E001153F
:1057B000110509F490E09E8349815A816B817C81B7
:1057C0008D810E944128E12C012B39F04DAD5EAD59
:1057D0006B2D8F2D0E94570BE82E0E2D10E080911F
:1057E0008F07800F912F911D09976CF188E0882E0B
:1057F000912C801A910AB8016057784FA40180E972
:1058000097E00E94A232B8016856784FA40188E957
:1058100097E00E94A232A401440F551FB801660F01
:10582000771F6855784F88EA97E00E94A232B80146
:105830006056784FA40180EA97E00E94A23288E087
:105840008E1980938F0710918F07A10160E0C1C06E
:1058500082E29BE026CF8091DE07843009F43FC0CE
:1058600080918D07811105C00E94951780E00E94EC
:105870006F0B21E020938D070E94451C80918D07BE
:10588000811105C00E94951780E00E946F0B31E0E6
:1058900030938D070E942E1D10928C0788E190E0B6
:1058A0000FB6F894A895809360000FBE1093600027
:1058B00083B7817F846083BF83B7816083BF78941F
:1058C000889583B78E7F83BF0FB6F894A895809193
:1058D0006000886180936000109260000FBE80912C
:1058E0008E07882369F00E948B28EEECF7E08EED9E
:1058F00097E021913191232B79F48E179F07C9F7F7
:105900008091DE07853009F4A6CF0E94D5130E944E
:105910006C0C10928D0702CF80E189BD82E189BDB8
:1059200009B400FEFDCF8091D8008F7D8093D80010
:105930008091E00082608093E0008091E00081FD32
:10594000FCCF0E94D513DCCF2817390709F0FFCE12
:105950000E946828B12C0E94451C10E000E044E041
:10596000C42ED12C5DEF652E62E0562E7CEF472EC3
:10597000E3E07E2E8091CB07181708F443C0002384
:1059800009F4C4C00E94260D0E942D1E0E94401DD5
:10599000C1C0DA017D91AD01872F90E030E0F901BF
:1059A000E157F84FDC01AA0FBB1FA850BE4FAC91C6
:1059B000A183880F991FDC01A750BE4F8C9181876E
:1059C000718BF901EE0FFF1FE157F84F128E118E08
:1059D0006F5F212F260FE612DCCF20938F07B39441
:1059E000CC0CDD1CB9E0BB12CCCEF3013297518256
:1059F0004082F394E8E0FE12ABCE0E94260DBB2459
:105A0000B394A9CF812E912C93B183B186FB8827C3
:105A100080F9880F95FB992790F9892BD401A4531D
:105A2000B84FEC919E2F9370891709F46DC0EE0F5B
:105A3000EE0FE82BEC93EF70F0E0E254FD4F940191
:105A40002653384F79018081D9019C91890F8C931D
:105A500020E084302CF1F401E753F84F80818F5F10
:105A600080831DA74EA60E94EF1FBC018FA798AB95
:105A700079AAAAAA4DA55EA583E091E00E944128DB
:105A80001BAB4CAA0E94EF1FBC018DAB9EAB7FAA43
:105A900018AE4BA95CA983E090E00E94412821E068
:105AA000F70180818D3F2CF5F401E753F84F808199
:105AB0008150808319A36AA20E94EF1FBC018BA3AF
:105AC0009CA35DA2AEA249A15AA182E091E00E94EE
:105AD00041281FA368A60E94EF1FBC0189A79AA7AF
