:100000000C94EA050C9407060C9407060C9407065A
:100010000C9407060C9407060C9407060C9407062C
:100020000C9407060C9407060C94B71E0C94731ED0
:100030000C945D290C9407060C9407060C94070693
:100040000C9407060C9407060C9407060C940706FC
:100050000C9407060C94901F0C9407060C9407064A
:100060000C9407060C9407060C9407060C940706DC
:100070000C9407060C9407060C9407060C940706CC
:100080000C9407060C9407060C9407060C940706BC
:100090000C9407060C9407060C9407060C940706AC
:1000A0000C9407060C9407060C94070605010980BA
:1000B000A101850319012AB700150126B700950192
:1000C00075108100C0050C0901A101850419012AE0
:1000D000A002150126A002950175108100C005013E
:1000E0000906A1018506050719E029E71500250184
:1000F0009508750181020507190029EF15002501F2
:1001000095F075018102050819012905950575010C
:100110009102950175039101C00660FF0961A1017B
:100120000962150026FF00952075088102096315F4
:100130000026FF00952075089102C005010906A15F
:1001400001050719E029E7150025019508750181CA
:10015000029501750881010507190029FF15002680
:10016000FF00950675088100050819012905950508
:1001700075019102950175039101C0000000000016
:10018000000000000000000000000000000000006F
:100190000000000000000000000000000000007EE1
:1001A0000F00D4FFFFFFC700000078000000000030
:1001B0000000002A2B2800000000000000000000C2
:1001C00000000000000029000000002C1E34202147
:1001D0002224342627252E362D3738271E1F20218E
:1001E00022232425263333362E37381F04050607ED
:1001F00008090A0B0C0D0E0F101112131415161707
:1002000018191A1B1C1D2F3130232D350405060724
:1002100008090A0B0C0D0E0F1011121314151617E6
:1002200018191A1B1C1D2F3130354C002E00DA0214
:1002300081FFD9F1DB20A4A62EAF00A0C000A1C889
:1002400000AED580A81FD300408D14200041646A01
:10025000757374005261697365004C6F7765720045
:1002600044656661756C74004C617965723A200072
:10027000808182838485868788898A8B8C8D8E8F06
:100280009091929394A0A1A2A3A4A5A6A7A8A9AA7D
:10029000ABACADAEAFB0B1B2B3B4C0C1C2C3C4C5F4
:1002A000C6C7C8C9CACBCCCDCECFD0D1D2D3D4004B
:1002B0000001010101010101010102020202020229
:1002C00002020203030303030303030404040404FC
:1002D00004040505050505060606060607070707C3
:1002E0000708080808090909090A0A0A0B0B0B0C78
:1002F0000C0C0D0D0D0E0E0E0F0F0F101011111115
:100300001212131314141515161617171818191995
:100310001A1A1B1B1C1D1D1E1E1F202021222223FA
:100320002424252626272829292A2B2C2D2D2E2F3B
:1003300030313232333435363738393A3B3C3D3E52
:100340003F404142434445464748494A4C4D4E4F41
:1003500050515354555658595A5B5D5E5F61626403
:10036000656668696B6C6D6F7072737577787A7B90
:100370007D7E8082838587888A8C8E8F91939596E7
:10038000989A9C9EA0A2A3A5A7A9ABADAFB1B3B507
:10039000B7BABCBEC0C2C4C6C9CBCDCFD1D4D6D8E3
:1003A000DBDDDFE2E4E7E9EBEEF0F3F5F8FAFDFF81
:1003B00000AF00AEA9002B0014001A0008001500C1
:1003C00017001C0018002B0039000400160007005D
:1003D00009000A000B000D002900E1001D001B00B0
:1003E000060019000500110010004600E000E300BF
:1003F000E2002C0000002A002152067F0C001200AF
:100400001300087F097F0A7F027F037F047F0E00AD
:100410000F000B7F0C7F2800000021002200017FCD
:10042000360037003800E500520000001E00007F53
:100430002000077F0D7F87005000510000004F0013
:100440002700370021780100217822782778287842
:1004500029782A78237801000100010001000100B9
:100460000100010001000100010001000100010084
:1004700001000100010001000100207801000100DD
:10048000010001000000010001000100247825782E
:1004900026780100010001004000410042000100F7
:1004A000010001000100010000003D003E003F008E
:1004B00001000100010001004B0000003A003B0078
:1004C0003C0001000100010001004E00000043005B
:1004D000440045000100010001000100010001008D
:1004E0000100010001000100010001000100010004
:1004F00001000100010001000100010001000100F4
:1005000001000100010001000100010001000100E3
:1005100001000100000001000100010001000100D4
:1005200001000100010001000100010001000100C3
:1005300001000100010001000000010001000100B4
:1005400001000100010001000100000001000100A4
:100550000100010001000100010001000000010094
:100560000100010001000100010001000100010083
:100570000100010001000100010001000100010073
:100580000100010001000100010001000100010063
:100590000100010001000100010001000100010053
:1005A0000100010000000100010001000100010044
:1005B0000100010001000100010001000100010033
:1005C0000100010001000100000001000100010024
:1005D0000100010001000100010000000100010014
:1005E0000100010001000100010001000000010004
:1005F0000100010009025B00030100A032090400B0
:10060000000103010100092111010001224000073E
:10061000058103080001090401000203000000092C
:100620002111010001222200070582032000010799
:100630000503032000010904020001030000000972
:100640002111010001226D00070584032000011221
:100650000100020000000866AB0100010001020079
:100660000110036A0074006E006B003600360077DC
:100670000000001A03740061006E0061006B0061ED
:10068000006A0075006E006A0075006E00000004CC
:100690000309040000000000003E5B4F5B3E003E8B
:1006A0006B4F6B3E001C3E7C3E1C00183C7E3C1891
:1006B000001C577D571C001C5E7F5E1C0000183C10
:1006C000180000FFE7C3E7FF00001824180000FF30
:1006D000E7DBE7FF0030483A060E00262979292695
:1006E00000407F05050700407F05253F005A3CE795
:1006F0003C5A007F3E1C1C0800081C1C3E7F001456
:10070000227F2214005F5F005F5F0006097F017F88
:1007100000006689956A0060606060600094A2FFD6
:10072000A2940008047E04080010207E2010000817
:10073000082A1C0800081C2A0808001E10101010A7
:10074000000C1E0C1E0C0030383E383000060E3EE9
:100750000E060000000000000000005F0000000026
:100760000700070000147F147F1400242A7F2A1238
:100770000023130864620036495620500000080721
:10078000030000001C224100000041221C00002A3E
:100790001C7F1C2A0008083E0808000080703000FA
:1007A0000008080808080000006060000020100829
:1007B0000402003E5149453E0000427F4000007265
:1007C00049494946002141494D33001814127F1010
:1007D000002745454539003C4A494931004121112E
:1007E000090700364949493600464949291E000093
:1007F00000140000000040340000000008142241F2
:1008000000141414141400004122140800020159A9
:100810000906003E415D594E007C1211127C007F9A
:1008200049494936003E41414122007F4141413E14
:10083000007F49494941007F09090901003E4141C2
:100840005173007F0808087F0000417F41000020AD
:1008500040413F01007F08142241007F404040405A
:10086000007F021C027F007F0408107F003E414190
:10087000413E007F09090906003E4151215E007F8B
:10088000091929460026494949320003017F01031D
:10089000003F4040403F001F2040201F003F4038A5
:1008A000403F0063140814630003047804030061EC
:1008B00059494D4300007F41414100020408102086
:1008C00000004141417F0004020102040040404019
:1008D0004040000003070800002054547840007F87
:1008E0002844443800384444442800384444287F8D
:1008F0000038545454180000087E090200182424BB
:100900001C78007F080404780000447D400000202B
:1009100040403D00007F102844000000417F40001F
:10092000007C04780478007C08040478003844448F
:100930004438007C1824241800182424187C007CD7
:10094000080404080048545454240004043F442478
:10095000003C4040207C001C2040201C003C4030DB
:10096000403C004428102844004C9090907C004467
:1009700064544C4400000836410000000077000039
:10098000000041360800000201020402003C262358
:10099000263C000000000000000000000000F8F805
:1009A000F8F8F80000F8F8F8F8F8F8F8F8F8F8F8B7
:1009B000F8F8F8F8F8F8F8000000F8F0E0C0800067
:1009C000000000000000C0E0F0F8000000F8F0E0D7
:1009D000C08000000000000080C0C0E0F0F0F8001F
:1009E00000181818181818181810303060C0800037
:1009F00000000000000000000000000000000000F7
:100A000000000000000000000000000000000000E6
:100A100000E0F0F0F0E0ECEEF7F37020007C7C7C7E
:100A20007E007E7E7E7F7F7F000080C0E07E5B4F09
:100A30005BFEC00000C000DCD7DEDEDED7DC00C01D
:100A400000000000000000000000000000000000A6
:100A500000000000C0C0C0C0C00000000000FCF9E1
:100A6000F3E74F000000000000000000F3E7CF9F15
:100A70003F000000000000000000FBF7EFDF3F7FB9
:100A8000FEFCF8F0E0C0FFFFFFFF000000FBF7EF07
:100A9000DF3F7FFEFCFEFFFFDF8F07070301010042
:100AA00000E0E00000000000000000000000C7FFC0
:100AB0000020202020200080402020000000600036
:100AC00000C040202020400000C080000000E00066
:100AD000000F1F3F7F7F7F7F7F3F1E0C001F1F1F68
:100AE0003F003F3F3F7F7F7F00307B7F783020207B
:100AF00030787F3B0003000F7F0F0F0F7F0F000345
:100B000000000000000000000000000000000000E5
:100B1000000000000003070F1F1F1F1E1F1F1F0FD5
:100B20000703000000000000000000001F1F1F1F3F
:100B30001F0000000000000000001F1F1F1F00001A
:100B4000000103070F1F1F1F1F1F0000001F1F1F93
:100B50001F0000000103070F1F1F1F1E1C1810009D
:100B6000003F3F3030303030301018180C06030191
:100B70000012121212120008110012120C001F00B3
:100B8000030C101010101000001F000306081F00B7
:100B90000000000000000000000000000000000055
:100BA0000000000000000000000000000000000045
:100BB0000000000000000000000000000000000035
:100BC0000000000000000000000000000000000025
:100BD0000000000011241FBECFEFDAE0DEBFCDBF62
:100BE00028E0A4E4B3E001C01D92A136B207E1F70A
:100BF00013E0A0E0B1E0EAEDFCE602C005900D9242
:100C0000A434B107D9F70E9484290C94D7350C94E9
:100C10000000E8EDF0E080818E7F80831092E2009A
:100C20001092DA001092E100A0EEB0E08C918160A9
:100C30008C9380818F77808319BCA7EDB0E08C9175
:100C40008E7F8C9380818F7E80831092160608950C
:100C50002091E4003091E50095E6A9012091EC0097
:100C6000822F817020FF06C08091E80080FF06C0BF
:100C700080E008952091E80022FD1AC080913B0693
:100C8000882389F0853089F08091EB0085FD0FC0C5
:100C90002091E4003091E50042175307F9F291509A
:100CA000E1F684E0089582E0089583E0089581E00C
:100CB000089580913D0687FF13C08091E80082FF70
:100CC00006C08091E8008B778093E80004C0809193
:100CD0003B068111F2CF089580913B068823D9F31A
:100CE0008091E80080FFF8CF8091E8008E77ECCF0C
:100CF000982F9093E900242F762F50E0891731F038
:100D00007091EC002091ED005091F00021FD07C0A2
:100D10009F5F973071F78093E90081E008953091EB
:100D2000EB003E7F3093EB003091ED003D7F309340
:100D3000ED003091EB0031603093EB007093EC00EC
:100D40002093ED005093F0002091EE0027FDE0CFBE
:100D500080E00895B0E0A0E0E0EBF6E00C94AE3166
:100D6000C8EDD0E088818F7E8883E7EDF0E0808158
:100D70008160808384E082BF81E080931606888151
:100D80008E7F888302EE10E0F80110821092DA0064
:100D900081EEC82ED12CF601108288818F7788834E
:100DA00088818068888388818F7D888319BC1092B0
:100DB0003B0610923C0610923A061092390690EECD
:100DC000E92EF12CF70180818B7F808388818160FF
:100DD000888342E060E080E00E947806F60180812E
:100DE0008E7F8083F801808181608083808188602C
:100DF0008083F70180818E7F8083888180618883F2
:100E0000CDB7DEB7E8E00C94CA31FC01809143060F
:100E10009091440686179707A0F06115710529F493
:100E20009091E8009E779093E80090E0611571053D
:100E300051F4911108C08091E80082FF34C080E035
:100E40000895BC01F2CF80913B068823C1F1853023
:100E5000C1F18091E80083FD30C08091E80082FDFF
:100E6000EACF8091E80080FFE1CF8091F3002091EC
:100E7000F200382F6115710519F02830310558F04E
:100E800091E02830310509F090E02091E8002E77BC
:100E90002093E800CBCF81918093F10061507109DC
:100EA0002F5F3F4FE7CF80913B06882341F085308D
:100EB00041F08091E80083FFBECF81E0089582E099
:100EC000089583E00895089580911806089587E7AE
:100ED00097E7909301088093000888E19AE00FB6A5
:100EE000F894A895809360000FBE90936000FFCFA8
:100EF0002FB7F89460911206709113068091140632
:100F0000909115062FBF0895A3E0B0E0EAE8F7E05E
:100F10000C94B43120910F06309110062817390730
:100F2000A1F09093100680930F06E0910D06F091CA
:100F30000E06309751F024E029839B838A83068034
:100F4000F781E02DCE01019609952396E2E00C94FD
:100F5000D031A3E0B0E0EFEAF7E00C94B431209197
:100F60000B0630910C0628173907A1F090930C0658
:100F700080930B06E0910D06F0910E06309751F02C
:100F800023E029839B838A830680F781E02DCE01AD
:100F9000019609952396E2E00C94D031E0910D067C
:100FA000F0910E06309729F00190F081E02D09951F
:100FB000089580E00895FA01811101C0FB010995AF
:100FC0000895EFE3F5E0818360834283339696E0F2
:100FD000E530F907C1F70895FC01EE0FFF1FE80F98
:100FE000F91FE15CFA4F6183408322830895E9E4AD
:100FF000F6E0248130E1231B08F420E02483809173
:101000003E05816080933E050895E9E4F6E0248181
:1010100030E1230F08F42FEF248380913E05816097
:1010200080933E05089590914906937059F08093FE
:101030004A0660934B0640934C0680913E05822BF6
:1010400080933E050895E9E4F6E0438120E1421BE8
:1010500008F440E0818121E0628190E00E94130861
:101060000895E9E4F6E0438120E1420F08F44FEFF0
:10107000818121E0628190E00E9413080895E9E4F3
:10108000F6E0628120E1621B08F460E0818121E0EA
:10109000438190E00E9413080895E9E4F6E062813C
:1010A00020E1620F08F46FEF818121E0438190E03D
:1010B0000E9413080895E9E4F6E0818121E043816C
:1010C00062818850990B0E9413080895E9E4F6E0C4
:1010D000818190E021E04381628108960E9413089B
:1010E000089590914906937061F081110BC094604E
:1010F000909349061092150180913E05862B8093AE
:101100003E0508958B3110F09866F2CF880F880F56
:10111000982BEECF8091490686958695815009F4EB
:101120008AE161E00E9471080895809149068695E0
:1011300086958F5F8B3108F081E061E00E94710835
:1011400008950F931F9310E0F801EE0FFF1FE15970
:10115000FD4F9081905797FD9195000F111FF80159
:10116000E059FD4F00810052110B2003F001219F37
:10117000F00D112408E310E0091B110997FD1395E8
:1011800040039001419F300D1124E20FF31F9F0196
:10119000220F331F2E0F3F1F37FF02C021583F4F32
:1011A000220F232F221F330B620F1F910F910895DF
:1011B0000F931F93522F10E0F801EE0FFF1FE0591D
:1011C000FD4FA081A052BB0B9D015203F001539F24
:1011D000F00D1124000F111FD801A159BD4F0C9122
:1011E0000057110B40039001419F300D11242E0F29
:1011F0003F1F37FF02C0215C3F4F96E03595279592
:101200009A95E1F7620F1F910F9108950F931F9325
:10121000522F10E0F801EE0FFF1FE059FD4FA081A3
:10122000A052BB0B9D015203F001539FF00D1124FE
:10123000000F111FD801A159BD4F0C910057110B80
:1012400040039001419F300D11242E0F3F1F37FFA7
:1012500002C021583F4F220F232F221F330B620F52
:101260001F910F910895EF920F93972F23E0029F04
:10127000B0011124759567956E0D792F0F91EF9040
:101280000895322F50E0FA01EE0FFF1FE059FD4F95
:101290009081905297FD9195440F551FFA01E159A5
:1012A000FD4F2081231B330B290F311D97FD3A95EC
:1012B000620F0895E42FF0E0EE0FFF1FE059FD4F9D
:1012C0006081621B0895E42FF0E0EE0FFF1FE159EB
:1012D000FD4F6081621B0895622F0895E42FF0E0B6
:1012E000EE0FFF1FE159FD4F408134EE439F412D2A
:1012F0001124E82FF0E050E0445E5F4FDA01A21BBA
:10130000B1099D01B7FF03C031952195310993E0E3
:10131000220F331F9A95E1F7AF01421B530B9A013D
:1013200057FD20E0582F259F212D1124822F08954D
:10133000E42FF0E0EE0FFF1FE159FD4F408134EE46
:10134000439F412D1124E72FF0E050E0445E5F4FB2
:10135000DA01A21BB1099D01B7FF03C031952195A8
:10136000310993E0220F331F9A95E1F7AF01421B39
:10137000530B9A0157FD20E0279F212D1124722F36
:1013800008950E94E10708950E94EC070895FC016A
:101390009B01009729F480E077FF2BC080E8089537
:1013A000AC0197FF04C044275527481B590BB901CE
:1013B000640F751F37FD10C0241B350BC901A5E054
:1013C000880F991FAA95E1F70E94E73180E2861BFA
:1013D000F7FF0FC081950895CB0165E0880F991F35
:1013E0006A95E1F7BA01621B730B0E94E73180E650
:1013F000EECF0895EF920F93CF93DF93D72FC82F9F
:10140000C9010E19BA010E94C709602F681B7D2F00
:101410008C2FDF91CF910F91EF9008950F93CF9381
:10142000DF93D72FC82FC901BA010E94C709682FBF
:10143000600F7D2F8C2FDF91CF910F910895EF9248
:101440000F931F93CF93DF93D62FC72F182FC90168
:101450000E19010FBA010E94C709081B202F219FF6
:10146000212D1124822F6D2F7C2FDF91CF911F9181
:101470000F91EF900895EF920F931F93CF93DF9307
:10148000D62F172FC82FC9010E19070FBA010E94B6
:10149000C709702F781B719F712D11246D2F8C2F10
:1014A000DF91CF911F910F91EF9008950F931F93AC
:1014B000CF93DF93D62FC72F182FC901212F201BC1
:1014C000022FBA010E94C709982F990F990F891B03
:1014D000800F282F219F212D1124822F6D2F7C2FEB
:1014E000DF91CF911F910F9108950F931F93CF9389
:1014F000DF93D62F172FC82FC901272F201B022FAC
:10150000BA010E94C709982F990F990F782F791B5C
:10151000700F719F712D11246D2F8C2FDF91CF9142
:101520001F910F910895E82F86FDE0952E2F2F70C3
:1015300086FD2F5FE695E695E695E670F0E0E253CE
:10154000FE4F9181929F902D212D112492959F7095
:101550002295207F922B2081920F87FD919580E824
:10156000890F0895AC018230910508F408959FEF2A
:10157000413E8EE1580740F49A0195E03695279553
:101580009A95E1F798E0920F61E0E62FE90FFF27C7
:10159000FF1F9F0135952795822F229FF001239FE2
:1015A000F00DF00D11244E175F0738F49FEF920FE6
:1015B000961758F78FEF860F08952F3FE9F361E0F4
:1015C000620FF6CF0F93CF93DF93D72FC82F47FD2E
:1015D000419588E390E0841B910947FD9395889F8E
:1015E000B001899F700D700D1124229FC001239FAF
:1015F000900D900D1124860F971F0E94B20A982F0C
:10160000990F890F682F600F7D2F8C2FDF91CF915D
:101610000F91089530E020E0869F212D969F200DA8
:10162000311D1124C9010895AF92BF92CF92DF926C
:10163000FF920F931F93CF93DF93362F472FE82FFF
:10164000F0E0E055FD4F71110FC0E4918E2F2E2F69
:101650006E2F722FDF91CF911F910F91FF90DF902E
:10166000CF90BF90AF900895C72FD0E02491F22E75
:10167000022F10E056E0659FC0011124EFEFF0E06B
:10168000BF010E949031832F90E0880F991F35E5AC
:10169000369FD001379FB00D11248A1B9B0B982FCA
:1016A000990F980F6F01CC1ADD0AC09ED001C19E20
:1016B000B00DD09EB00D11248B2F499FA001112495
:1016C000452F55276F01C41AD50AC09EA001C19E9F
:1016D000500DD09E500D11245F01A91AB108AC9E87
:1016E0006001AD9ED00CBC9ED00C1124CD2CDD240D
:1016F000EC19FD09E09FE001E19FD00DF09FD00DB6
:101700001124ED2F62307105A1F050F461157105BF
:1017100009F49ECF6130710581F0EB2F852F98CFB2
:101720006430710569F080F06630710509F490CF7E
:10173000F4CFE22F2B2F8D2F8BCFE22F252F88CFA9
:10174000EB2F822F2D2F84CF2B2F8F2DE52F80CFA6
:101750000F931F93CF93DF93EC01FC01ED50FD4FEE
:1017600080816823D1F100914B0610914C06409185
:101770004A06E42FF0E0609116017091170185E0B0
:1017800098E0689F9001699F300D789F300D11247B
:10179000275E394C3093170120931601CF018C54EA
:1017A0009F4F68E671E00E94E7318E1B9F0B97FD0B
:1017B00003969595879595958795230F2370642FAC
:1017C000289F600D1124702F812F0E94140B462F2B
:1017D000282F672FCE010E94C409DF91CF911F915E
:1017E0000F910895B0E0A0E0E8EFFBE00C94AB317E
:1017F0006C01C09119018EE0C89FC02D11241EE01C
:101800001C0FB12E133410F032E4B32E60914D064C
:101810006695669580914506909146060E940A0B52
:10182000F82E80E48F0D0E94930A90E8A92EA80E4E
:101830008F2D0E94930A20E8922E980ED0E0CB15AF
:1018400048F081E0123408F080E0CDB7DEB7EBE07D
:101850000C94C731FE01ED50FD4F808190911A012B
:101860008923A1F060914A0670914B0680914C0645
:10187000EF2C0C2F292D4A2DF60109950E94140BEF
:10188000462F282F672FCE010E94C4092196D7CF5B
:10189000B0E0A0E0EEE4FCE00C94A9315C01C09162
:1018A00019018EE0C89FC02D11241EE01C0FF12EDF
:1018B000133410F032E4F32E60914D06669580915A
:1018C0004506909146060E940A0B782ED0E0CF156F
:1018D00048F081E0123408F080E0CDB7DEB7EDE0EB
:1018E0000C94C531FE01ED50FD4F808190911A019D
:1018F0008923C9F1CE01880F991F895D9D4FFC0195
:10190000E85BFF4F2081422F4057550B6A01875BF0
:101910009F4FFC018081282F2052330B4901449FA7
:101920009001459F300D300D1124889CC001899C89
:10193000900D900D1124820F931F0E94B20A082F60
:1019400060914A0670914B0680914C06E72C9401F9
:10195000A601F50109950E94140B462F282F672F29
:10196000CE010E94C4092196B2CFB0E0A0E0EBEB1B
:10197000FCE00C94AE317C01C09119018EE0C89F4F
:10198000C02D11241EE01C0FD12E133410F032E4B0
:10199000D32E60914D06669580914506909146063E
:1019A0000E940A0BC82ED0E0CD1548F081E0123419
:1019B00008F080E0CDB7DEB7E8E00C94CA31FE0154
:1019C000ED50FD4F808190911A01892311F1CE01D4
:1019D000880F991F895D9D4FFC01E75BFF4F2081B8
:1019E0002052330B885B9F4FFC0140814057550BC1
:1019F00060914A0670914B0680914C060C2DF701C0
:101A000009950E94140B462F282F672FCE010E94A4
:101A1000C4092196C9CFB0E0A0E0E1E1FDE00C945B
:101A2000AF317C01C09119018EE0C89FC02D1124F7
:101A30001EE01C0F012F133408F002E460914D06E4
:101A40006695669521E0620F08F46FEF8091450678
:101A5000909146060E940A0BD82ED0E0C01748F09D
:101A600081E0123408F080E0CDB7DEB7E7E00C94F7
:101A7000CB31FE01ED50FD4F808190911A018923F9
:101A800091F060914A0670914B0680914C062D2D85
:101A90004C2FF70109950E94140B462F282F672F12
:101AA000CE010E94C4092196D9CF80E0089590917B
:101AB0005E0892FF06C0282F28712830F9F4877F2E
:101AC000846093FF06C0282F28712831F1F4877EA7
:101AD000846120915F0820FF06C0382F38713830AC
:101AE000D9F4877F816021FF06C0282F2871283113
:101AF000D1F4877E816194FD877E0895282F24711B
:101B00002430F9F68B7F8860DCCF282F24712431B4
:101B100001F78B7E8861DDCF382F3171313019F7B5
:101B20008E7F8860E0CF282F2171213121F78E7EB2
:101B30008861E1CFCF93DF93EC0182389105B9F151
:101B400008F041C08133910509F49FC050F58932F6
:101B5000910509F48FC08A9709F49EC0C11582E5EA
:101B6000D80708F0C6C0C11590E5D90708F049C1EB
:101B7000C03ED10508F0A5C0CD3CD10508F0FAC0A3
:101B8000C83AD10508F08FC0C53AD10508F0EAC0BF
:101B9000C130D10539F1209729F1C430D10510F5B4
:101BA00046C08533910509F460C0C997B9F68091A4
:101BB0005E08837009F036C180915F0883FF12C010
:101BC000C9E2D0E00FC0833E9105A1F178F4803ED8
:101BD000910509F1823E910509F0C0CF80915E0820
:101BE00082FD21C0CE01DF91CF910895863E9105FF
:101BF00061F1873E910571F1843E910509F0AECF08
:101C000080915F0881FFEECF80915E08C7EED0E043
:101C100084FD0DC0E7CF80915E0880FD33C09091B8
:101C20005F0890FFDFCFC3EED0E084FFDBCFD0E0D2
:101C3000C0E0D8CF80915E0882FDF1C090915F082E
:101C400090FDF0C084FFCECFF2CF80915E0883FD7F
:101C5000DDCFC8CF80915E0883FDE7C090915F081B
:101C600091FFF0CFC4EED0E0BDCF80915E0885FF3C
:101C7000B9CFA6CF80915E0885FDDAC080915F085C
:101C800083FFB0CFC9E3D0E0ADCF80915E0886FF7F
:101C9000A9CFCAE2D0E0A6CF80915E0886FFA2CF8E
:101CA000C1E3D0E09FCFC13CD10508F6C85AD0E0CF
:101CB000CC0FDD1FC159DE4F0990D881C02DD464EF
:101CC00091CFC11580E2D80760F4C11591E0D90722
:101CD00008F088CFCE01815E9109079708F482CF82
:101CE000A6CFC11580E4D80708F4A1CFDF70D06A71
:101CF00079CFC03892E5D907A8F4C03682E5D80775
:101D000008F063C0C03492E5D90708F049C0C0327A
:101D100082E5D80788F1CF71D0E0DC2FCC27C16FE6
:101D2000D06A60CFC03C92E5D90780F48C2F8F71C8
:101D3000C03AD24508F45EC00E94570DC82FD0E0CB
:101D4000DC2FCC27CC27DF71D0624CCFC03E82E5A0
:101D5000D80708F06CCFDC2FCC27CC27DF71C06F01
:101D6000D06A40CFC55AD0E0C459DE4FC881D0E018
:101D7000D06438CFD06536CF2C2F2695269590E2AB
:101D8000299F900111248C2F8370C1E0D0E002C004
:101D9000CC0FDD1F8A95E2F7C22BD32BDD6822CF53
:101DA0002C2F26952695277080E2289F90011124DC
:101DB0008C2F8370C1E0D0E002C0CC0FDD1F8A956C
:101DC000E2F7C22BD32BDC680DCF2C2F269526955E
:101DD000277090E2299F900111248C2F8370C1E01D
:101DE000D0E002C0CC0FDD1F8A95E2F7C22BD32BC7
:101DF000DA68F8CEC82FD0E0DC2FCC27C46FD06AC9
:101E0000F1CE8C2F8F710E94570D95E0D695C79516
:101E10009A95E1F7CF709C2FEC01D069E3CEC2EE2A
:101E2000D0E0E0CEC0EED0E0DDCEC6EED0E0DACE3F
:101E3000C5E3D0E0D7CE909118019923D1F09091CD
:101E40005E0897FF16C0E82FE695E695E695EE3119
:101E5000E0F4F0E0EA5BFC4F282F277081E090E08F
:101E600001C0880F2A95EAF78095928189238283A1
:101E70000895E8E4F3E09191891303C0DF0111971D
:101E80001C9293E0EE34F907B1F708959091180190
:101E90009923C1F090915E0897FF14C0E82FE69552
:101EA000E695E695EE31F8F4F0E0EA5BFC4F8770DA
:101EB00021E030E001C0220F8A95EAF78281822B6F
:101EC00082830895A8E4B3E0EFEF90E02D918217AC
:101ED00051F0EF3F19F4211101C0E92F9F5F9630B7
:101EE000A9F7EF3F09F408950E2E000CFF0BEA5BF3
:101EF000FC4FE6CF292F983078F5893068F590E0CF
:101F000039E0239F800D911D1124682F677023E015
:101F1000969587952A95E1F7FC01EE0FFF1FE80FD4
:101F2000F91FE759FC4F50E040E080E0219130E09C
:101F3000062E02C0369527950A94E2F721703327C2
:101F4000042E01C0220F0A94EAF7822B4F5F5F4FE5
:101F50004330510559F7089580E00895292F9830AE
:101F600098F5893088F590E039E0239F800D911D28
:101F70001124282F277041E001C0440F2A95EAF769
:101F800023E0969587952A95E1F7FC01EE0FFF1F58
:101F9000E80FF91FE759FC4F30E020E070E0519165
:101FA000DF011197CB01022E02C0969587950A9406
:101FB000E2F7817081958527842385278C932F5F95
:101FC0003F4F2330310559F7089580935A080895FB
:101FD00080915A08982F9670963021F488600E945C
:101FE000E50F0895877FFBCF21E030E001C0220F8D
:101FF0008A95EAF7209580915A0882230E94E50F7E
:10200000089590916008892F8D7F80936008292F13
:10201000257091F4282F082E000C330B921713060D
:1020200059F090915F0892FF07C085958595859539
:102030000E94F40F10926008089521E030E001C082
:10204000220F8A95EAF780915A08822B0E94E50FA9
:1020500008958093A7030895B0E0A0E0E2E3F0E1E3
:102060000C94AE316C017B0164E670E088E70E945D
:10207000AA30EC0197FD12C010E000E0F601E00F7D
:10208000F11F849164E670E00E941631EC01892B07
:1020900029F40F5F1F4F0E151F0581F70E948C3129
:1020A000CE01CDB7DEB7E8E00C94CA3180910906C5
:1020B00090910A06911103C091E089270895882321
:1020C00069F062E070E082EB93E00E942C10892BB3
:1020D00019F0809109060895109209068091090669
:1020E000EBCFCF93C091090680910A068823D1F0E7
:1020F0000E947807605A75418F4F9F4F6093050685
:10210000709306068093070690930806C11108C0D5
:1021100062E070E080EB93E00E942C10892B29F0A4
:10212000C09109068C2FCF91089581E08093090614
:10213000F7CFE2E5F6E080E092E0DF019C011D923E
:1021400021503040E1F7F0935908E09358088FEFA1
:102150009FEF90935106809350060895CF93DF939D
:10216000682F81E06A3019F06D3031F480E00E9410
:102170003C11DF91CF9108958091580890915908B2
:1021800026E0FC01A2E5B8E001900D922A95E1F766
:10219000603E08F458C026E0FC0111922A95E9F748
:1021A000C0915808D091590846E050E0BE0182E540
:1021B00098E00E946D329E0122553640892B41F1F4
:1021C000C90145E0969587954A95E1F741E050E0D1
:1021D000BA0102C0660F771F8A95E2F7CB016091C2
:1021E000500670915106862B972BB9016B5F7F4F7C
:1021F000E5E076956795EA95E1F702C0440F551F33
:102200006A95E2F7842B952B9093510680935006A4
:102210002A5F3F4F40914F06642F70E0C9010E9432
:102220009031481B463010F4240F311D211572E007
:10223000370710F030E020E02E5A394F309359081C
:102240002093580896CFF6E06F9FB00111246D5689
:10225000794F46E050E00E946432A2CFCF93DF93E3
:10226000EC01FE018491811103C0DF91CF910895AB
:102270000E94AE102196F5CFCF93382FE0915808E9
:10228000F0915908E255F64020914F06622F70E018
:10229000CF010E949031281B822F332361F066E02A
:1022A0000E94DB31C82FC15010F4CF91089580E215
:1022B0000E94AE10F8CF9F01280F311D211532402A
:1022C00018F080E0F0E0E0E08E0F9F2F911D8E5A15
:1022D000994F9093590880935808E7CF8091A603AF
:1022E0009091A503892B809346039091A403992391
:1022F000A1F0892B80934603809118018823E1F196
:1023000080915E0887FF38C08EE1E8E4F3E090E05A
:102310008150A0F591111092A40340E250E064E8CE
:1023200073E086E493E00E946D32892B21F180E214
:10233000E6E4F3E0A4E8B3E001900D928A95E1F7BA
:10234000E0910D06F0910E063097A9F080911801EA
:10235000882359F080915E0887FF07C0809146036B
:102360008093470386E0809346030280F381E02D4B
:1023700086E493E00995089586E0C7CF2191222352
:1023800039F29F5FC5CF1092A60380911801E8E44F
:10239000F3E08823B1F080915E0887FF12C08EE1E0
:1023A000DF011D928A95E9F790E080E00E94A9077D
:1023B00090E080E00E9484071092A5030E946E11B5
:1023C000089586E0EDCFAAE2B0E0E9EEF1E10C94E9
:1023D000B3318DE396E02091F100DC012D93CD0126
:1023E000B6E085349B07B9F780913E06833009F447
:1023F00072C0B8F4813009F449C0823009F4B3C026
:102400008091E80083FF8BC280913D0690913E064B
:102410009A3008F084C2E92FF0E0E752FA4C0C94AD
:10242000FB318A3009F48EC08B3009F471C08930D9
:1024300039F780913D06813219F7809141069091DC
:102440004206009711F00297D9F68091E800877F45
:102450008093E8008091E80082FF38C09091F300FB
:102460008091F200029731F48091F100813011F0F7
:10247000863021F48091F100809318068091E80065
:102480008B778093E8000E945906BACF80913D0671
:10249000813A09F0B5CF8091E800877F8093E8000A
:1024A0008091410690914206892B61F460E289E1B6
:1024B00096E070E00E9405078091E8008B7780939A
:1024C000E8009ECF60E090E080E0F3CF80913B0693
:1024D0008111C0CF95CF80913D06813A09F090CF10
:1024E0008091410690914206892B09F089CF809115
:1024F000E800877F8093E8008091E80080FFFCCFB0
:10250000809118018093F1008091E8008E77B9CF17
:1025100080913D06813209F073CF80914106909100
:102520004206892B09F06CCF8091E800877F809369
:10253000E8000E94590680913F06809318010E948E
:10254000C3115ECF80913D06813209F059CF809151
:10255000E800877F8093E8000E945906809140063A
:10256000809317064DCF80913D06813A09F048CF00
:102570008091E800877F8093E8008091E80080FFE9
:10258000FCCF80911706BECF803899F0823809F0D1
:10259000C6C1809141068F70873008F0C0C180931A
:1025A000E9008091EB0085FB882780F91092E90013
:1025B00006C08091390690913A06911182609091FF
:1025C000E800977F9093E8008093F1001092F1006B
:1025D0008091E8008E779FC1882309F48DC18230F5
:1025E00009F09DC180913F06811190C18091410603
:1025F0008F702FEF280F263008F091C18093E900EB
:102600002091EB0020FF82C1933031F48091EB00E8
:1026100080628093EB007AC19091EB00906190937F
:10262000EB0021E030E001C0220F8A95EAF7209309
:10263000EA001092EA008091EB008860EACF8111F5
:102640006EC110913F061F778091E3008078812B47
:102650008093E3008091E800877F8093E8000E94E8
:1026600059068091E80080FFFCCF8091E3008068EC
:102670008093E30082E0111183E080933B064FC119
:102680008058823008F04BC120913F0630914006BF
:102690002C3DE3E03E07A1F583E08A838AE289834B
:1026A0004FB7F894DE01139620E03EE051E2E32FAD
:1026B000F0E050935700E49120FF03C0E295EF70E3
:1026C0003F5FEF708E2F90E0EA30C0F0C7968D9399
:1026D0009D932F5F243159F74FBF8091E800877F8A
:1026E0008093E8006AE270E0CE0101960E9405073F
:1026F0008091E8008B778093E80011C1C096E7CF06
:102700008091410690914206432F55274330510551
:1027100009F44AC078F54130510509F47AC08BE5D7
:1027200090E0E4EFF5E04230510509F0F8C0209167
:10273000E800277F2093E80020914306309144066B
:102740008217930708F49C0140E02115310509F038
:1027500065C0411163C08091E80082FDC9CF8091BE
:102760003B06882329F2853019F28091E80083FF27
:10277000F2CFBECF4132510509F43CC0423251057F
:1027800009F0CDC08330910508F0C9C0FC01EE0FFF
:10279000FF1FE55EFD4F0190F081E02D885E9D4FAB
:1027A000DC018C9190E01AC0332721303105D1F043
:1027B0002115310561F02230310509F0B0C0E1E6A4
:1027C000F6E0E4918E2F90E0E1E6F6E007C0EFE856
:1027D000F6E0E4918E2F90E0EFE8F6E0009709F440
:1027E0009EC0A5CFE3E7F6E0E4918E2F90E0E3E70B
:1027F000F6E0F4CF8330910508F091C0880F991F5F
:10280000FC01EF5DFD4F0190F081E02D89E090E04B
:102810008ECF82E190E0EFE4F6E089CF80913B0635
:10282000882309F465CF853009F462CF8091E800F0
:1028300083FD5ECF8091E80082FD8DCF8091E8001E
:1028400080FF83CF9091F3008091F2002115310534
:1028500019F08830910550F041E0089709F040E008
:102860008091E8008E778093E8006FCF4491409389
:10287000F1003196215031090196E8CF803809F0F6
:102880004EC08091E800877F8093E80080913C06ED
:102890008093F1009DCE811142C010913F0612300D
:1028A000F0F58091E800877F8093E80010933C0664
:1028B0000E945906112311F084E005C08091E300C5
:1028C00087FDFACF81E080933B0642E061EC81E036
:1028D0000E94780642E261EC84E00E94780642E2BF
:1028E00061EC82E00E94780642E260EC83E00E94A4
:1028F000780680913B0613C080913F06813079F4C1
:1029000081E0933009F080E080933A061092E9006C
:102910008091E800877F8093E8000E9459068091AB
:10292000E80083FF0AC08091E800877F8093E80079
:102930008091EB0080628093EB00AA96E3E00C9418
:10294000CF31882341F080959091A603892380930D
:10295000A6030E946E110895882339F09091A60372
:10296000982B9093A6030E946E110895882309F472
:1029700054C0823879F40E94CE0781FF4EC089E3AB
:102980000E94460F0E946E1189E30E941B0F0E9455
:102990006E110895833859F40E94CE0780FF3DC020
:1029A00083E50E94460F0E946E1183E5EECF8438C6
:1029B00059F40E94CE0782FF30C087E40E94460F80
:1029C0000E946E1187E4E1CF9CEF980F913AE8F2F4
:1029D00090E2980F983088F4877021E030E0A901E8
:1029E00002C0440F551F8A95E2F7CA018095909165
:1029F000A60389238093A603CACF9BE5980F933043
:102A000028F490E080E00E94A9070895885A89314F
:102A100020F490E080E00E9484070895CF92DF9236
:102A2000FF920F931F93CF93DF93EC01162F0E9419
:102A3000543227E0C22ED12CB6010E94E731FC01AE
:102A4000EE0FFF1FEB5CFC4FF0800E945432B6018A
:102A50000E94E731FC01EE0FFF1FEB5CFC4F018190
:102A6000FE01ED50FD4F808190911A01892359F0AC
:102A70006F2D702F812F0E94140B462F282F672F48
:102A8000CE010E94C4096F2D702F812FDF91CF914D
:102A90001F910F91FF90DF90CF9008950F931F9398
:102AA000CF93DF938B01EA0190913B06943061F55F
:102AB0008093E9008FEF9091E800815095FD06C06A
:102AC00095ED9A95F1F700008111F5CF8091E8001E
:102AD00085FF1AC00E942806811111C08091E8006C
:102AE00085FD06C08091E8008E778093E800F2CFE4
:102AF000F80181918F018093F100219779F78091FE
:102B0000E8008E778093E800DF91CF911F910F91BD
:102B1000089543E050E0BC0184E00E944E15089502
:102B2000CF93DF93EC0180911801811111C048E02F
:102B300050E0BE0181E00E944E1580E2FE01A9E155
:102B4000B6E001900D928A95E1F7DF91CF9108955B
:102B500080915E0887FF05C040E284E050E0BE013E
:102B6000EACF48E081E0FACF539A3BB1377F2BB1EF
:102B700028604FB7F8948FE395E0FC015191CF01A5
:102B800068E02BB9000000C057FF3BB9550F0000AB
:102B900000C000C000C03BB900C06A9591F7F6E0E4
:102BA00085309F0751F74FBF8FE594E00197F1F70C
:102BB00000C000000895CF93C82F8823C9F0823841
:102BC000C9F40E94CE0781FD13C089E30E94460F1D
:102BD0000E946E112FEF87EE93E0215080409040CD
:102BE000E1F700C0000089E30E941B0F0E946E11F4
:102BF000CF9108958338A1F40E94CE0780FDF8CFCD
:102C000083E50E94460F0E946E112FEF81EE94E043
:102C1000215080409040E1F700C0000083E5E4CF00
:102C20008438A1F40E94CE0782FDE2CF87E40E949F
:102C3000460F0E946E112FEF81EE94E021508040EC
:102C40009040E1F700C0000087E4CECF8CEF8C0FFE
:102C5000813A88F580911801882301F180915E08FE
:102C600087FF1CC0EC2FE695E695E695F0E0EA5B61
:102C7000FC4F828190E04C2F477021E030E002C091
:102C8000220F331F4A95E2F782239323892B79F091
:102C90008C2F0E941B0F0E946E1109C0E8E4F3E024
:102CA0008191C817A9F323E0EE34F207C9F78C2FFE
:102CB0000E94460F9BCF80E28C0F883068F4C7706B
:102CC00021E030E001C0220FCA95EAF78091A60307
:102CD000822B8093A6038ACFEBE5EC0FE33040F420
:102CE000F0E0E459FE4F808190E00E94A90780CF78
:102CF000C85AC93108F07CCFEC2FF0E0EE0FFF1F6F
:102D0000E159FE4F808191810E94840771CF1F930A
:102D1000CF93DF93182FD0E0C0E0893311F4C0E5E2
:102D2000D0E0812F0E94DB15209739F4812F0E947B
:102D3000B614DF91CF911F9108958FE99FE001971D
:102D4000F1F700C000002197EFCF0E94C3112FEFD1
:102D500084E39CE0215080409040E1F700C00000F7
:102D600088E19AE00FB6F894A895809360000FBEB2
:102D700090936000FFCFCF93DF93C6E6D2E060E090
:102D8000CE010E9450352196C11584E0D807B9F7CD
:102D9000DF91CF9108951F93CF93DF93122F84304B
:102DA000E0F46830D0F44930C0F4C42FD0E0CC0F48
:102DB000DD1F92E1699FC00DD11D112490E9899F0B
:102DC000C00DD11D1124632FCE0186960E9450356F
:102DD000612FCE0187960E945035DF91CF911F91D0
:102DE0000895AF92BF92CF92DF92EF92FF921F931E
:102DF000CF93DF9384EBC82E83E0D82ED0E076010A
:102E0000C0E014C0F50125913491412F6C2F8D2F16
:102E10000E94CB1682E0A80EB11C1F5F193091F7FB
:102E200082E1E80EF11CCF5FC83019F0570110E0C5
:102E3000E9CFDF5F80E9C80ED11CD43001F7DF9104
:102E4000CF911F91FF90EF90DF90CF90BF90AF9008
:102E50000895CF93C82F6FEF811163E282E290E073
:102E60000E945035C1110DC0CFEF6C2F83E290E06E
:102E70000E9450356C2F84E290E00E945035CF9133
:102E80000895C1E1F2CF80E00E94291760E085E259
:102E900090E00E9450350E94F1160E94BB1681E01E
:102EA0000E94291708950F931F93CF93DF938430C7
:102EB00030F5683020F5493010F5C42FD0E0CC0F44
:102EC000DD1F22E1629FC00DD11D112430E9839FD7
:102ED000C00DD11D1124CE0186960E943235082FD7
:102EE00010E0102F0027CE0187960E9432359801FE
:102EF000282BC901DF91CF911F910F91089590E088
:102F000080E0F8CF462F783040F4693030F48430D8
:102F100020F4672F0E945317089590E080E00895F1
:102F2000CF92DF92FF920F931F93CF93DF936C01A9
:102F300000915A088091A703082BC7E0D0E010E069
:102F4000FC2EC8010C2E02C0959587950A94E2F7D5
:102F500080FD0CC02197A0F7F12C8F2DDF91CF9130
:102F60001F910F91FF90DF90CF900895B6018C2FA5
:102F70000E9482170E949A0D019761F3EECF82E2C0
:102F800090E00E943235833289F483E290E00E941F
:102F90003235813159F484E290E00E94323591E07B
:102FA000813109F090E0892F8170089580E0FCCF95
:102FB00046E050E06CE170E089E496E00E94403524
:102FC00010923E050895A7E0B0E0E9EEF7E10C9419
:102FD000A431C0904904D0904A04E0904B04F09092
:102FE0004C048FB7F89440901206509013066090EE
:102FF0001406709015068FBF530142018C189D086E
:10300000AE08BF080E9478076093490470934A0491
:1030100080934B0490934C04A0912004E0E2F4E0F0
:103020002A2F30E04FEFC40ED41EE11CF11CC4184F
:10303000D508E608F708A3131BC02093200430919D
:103040004906E32FE3703E2E19F0332E3694369462
:10305000209115012130B1F12223E9F0223009F449
:103060007DC5233009F483C52796E2E10C94C03175
:10307000418D528D2A01712C612CC414D504E604B3
:10308000F70420F421503F5F3296D5CF480D591DEB
:10309000528F418FF8CF10921901609345067093BB
:1030A0004606809347069093480689E2E0E2F4E002
:1030B000A3E1B5E001900D928A95E1F781E080935C
:1030C0001501D2CF9091140181E039120BC0832FEA
:1030D00083702091130130E091E08217130609F408
:1030E00090E0892F817080931B0180914E06909112
:1030F0001A01981739F080931A0140E060E080E0EF
:103100000E94C109FAE1F31578F0E32DF0E0ED51EA
:10311000FA4C0C94FB3180911B01882351F140E063
:1031200060E080E00E94C10980E023C02091190185
:103130008EE0289F802D11248983182F125F012F84
:10314000133408F002E460914A0670914B068091B6
:103150004C060E94140BF62EE72ED82E9981892F4B
:1031600090E09D838C83FC81F017A8F081E01234FD
:10317000D8F6909119019F5F90931901811174CF36
:1031800082E08093150180911B0181116DCF311078
:103190006BCF83E094CFEC81FD81ED50FD4F8081BA
:1031A00090911A01892339F02D2D4F2D6E2D8C8190
:1031B0009D810E94C409EC81FD813196FD83EC83E1
:1031C000D2CF209119018EE0289F802D1124898370
:1031D000182F125F012F133408F002E4E0904B0621
:1031E000F0904C0630914A063A83632F7E2D8F2D46
:1031F0000E94140BD62EC72EB82E60914D064A8120
:10320000640F7E2D8F2D0E94140BF62EE72EA82E14
:103210009981892F90E09D838C83FC81F01708F0C1
:10322000A5CFEC81FD81ED50FD4F908180911A0179
:10323000892361F02A2D4F2D6E2D90FD03C02B2D7B
:103240004D2D6C2D8C819D810E94C409EC81FD81E6
:103250003196FD83EC83E1CF209119018EE0289F08
:10326000802D11248983182F125FF12E133410F052
:1032700092E4F92EE0904B06D0904C0620914D063A
:1032800000E4029F012D11249981892F90E09D83F4
:103290008C83FC81FF1508F069CFEC81FD81ED5036
:1032A000FD4F808190911A018923C9F0EC81FD8145
:1032B000EE0FFF1FE059FD4F808182958F70609166
:1032C0004A06809F600D11247E2D8D2D0E94140BC7
:1032D000462F282F672F8C819D810E94C409EC8185
:1032E000FD813196FD83EC83D4CF209119018EE0CE
:1032F000289F802D11248983182F125FF12E1334FB
:1033000010F002E4F02EE0904B06D0904C06209195
:103310004D0600E4029F012D11249981892F90E030
:103320009D838C83FC81FF1508F020CFEC81FD810B
:10333000ED50FD4F808190911A018923E9F0EC81D5
:10334000FD81EE0FFF1FE159FD4F6081069FB00127
:103350001124B5E075956795BA95E1F780914A0615
:10336000680F7E2D8D2D0E94140B462F282F672F5E
:103370008C819D810E94C409EC81FD813196FD8381
:10338000EC83D0CF209119018EE0289F802D11244D
:103390008983182F125F012F133408F002E4F09094
:1033A0004A0630914B063A83E0904C0660914D06F8
:1033B00066956695669580914506909146060E94B1
:1033C0000A0B0E94930A805887FD8195880F482F29
:1033D0006E2D469F412D1124842F6F2D7A810E94DE
:1033E000140BF62EE72ED82E9981892F90E09D831D
:1033F0008C83FC81F01708F0B9CEEC81FD81ED5093
:10340000FD4F808190911A01892339F02D2D4F2D88
:103410006E2D8C819D810E94C409EC81FD813196C5
:10342000FD83EC83E6CF88E999E00E940B0DA1CEE5
:103430008EE699E0FACF85E79AE00E94B50C99CE26
:1034400086E59AE0FACF8BE39AE00E94480C91CE91
:103450008FE19AE0FACF8CE699E0E7CF83E699E036
:10346000E4CF8AE599E0E1CF81E499E0DECF83E320
:1034700099E0EBCF82EE9AE0E0CF8EE09AE0DDCFEC
:103480008AEF99E0E2CF86E099E00E94F20B71CEDC
:1034900088ED98E0FACF81EA98E0F7CF2091190102
:1034A0008EE0289F802D11248983EEE0FE2EF80EF9
:1034B00080911B01811135C060914D0620E1620FA2
:1034C00008F46FEF80914506909146060E940A0B22
:1034D0006AE070E00E949031892BE9F44091160176
:1034E0005091170125E038E0429FC001439F900DA5
:1034F000529F900D1124875E994C909317018093F1
:103500001601890F62E40E94DB3160911A01892F54
:1035100090E00E94A80B81E031E43F1508F029CE2D
:1035200003CE0F2D32E43F1508F402E49981892F70
:1035300090E09D838C8310E02C813D812017310722
:1035400054F760911A018C819D810E94A80BEC8137
:10355000FD813196FD83EC83EFCF409119011EE090
:10356000419F102D11240EE0010F702E033410F036
:1035700072E4772E60914D0620E1620F08F46FEF40
:1035800080914506909146060E940A0B6FE170E01B
:103590000E949031892B41F50E94543262E470E020
:1035A0000E94E731FC01FF27FD83EC83EF52FB4FC4
:1035B0007F018081811113C060914C068C819D81B7
:1035C0000E940E15EC81FD81E157FB4F60832C8139
:1035D0003D81235B3B4FF9017083F701808380912C
:1035E0003D058F5F80933D05E12FF0E0FD83EC8387
:1035F000CF01880F991F9C0121593D4F790133E17B
:10360000A32E35E0B32E68C0EC81FD81ED50FD4F57
:10361000808190911A01892309F456C040901305C6
:1036200080913D0582958F7067E00E94DB31E92F24
:10363000F0E0EE0FFF1FEB5CFC4F508061805CE21E
:10364000C52E55E0D52E63E1862E65E0962E10E05E
:10365000882D8A19841508F448C020914C06129FC1
:10366000112D1124652D762D812F0E94140B462FCC
:10367000282F672F8C819D810E94C409EC81FD81D8
:10368000E157FB4F6081AC81BD81A35BBB4F7C9157
:10369000EC81FD81EF52FB4F8081272F40E0241BFE
:1036A00008F420E02C93282F31E0231B08F420E0BD
:1036B0002083222349F00E94140B462F282F672FC6
:1036C0008C819D810E94C4098C819D8101969D837E
:1036D0008C8392E0E90EF11C3C81371508F494CFFD
:1036E00081E0023408F445CD1FCDF7014081F4019B
:1036F0008181481B550BF7012181F4018185281B2D
:10370000330B449FB001459F700D700D1124229F13
:10371000C001239F900D900D1124860F971F0E94CA
:10372000B20A282E60914D0621E0620F08F46FEF77
:10373000F601819191916F010E940A0B8219910902
:103740008F3F910519F010F08FEF90E08095282FB2
:10375000120F08F41FEF3FEF831A930A79CF4091BD
:1037600019010EE0409F002D11246EE0600F6A8366
:10377000162F633408F012E460914D0620E1620FC9
:1037800008F46FEF80914506909146060E940A0B5F
:103790006FE170E00E949031892B41F50E94543214
:1037A00062E470E00E94E731FC01FF27FD83EC83B7
:1037B000EF52FB4F7F018081811113C060914C0655
:1037C0008C819D810E940E15EC81FD81E157FB4F9C
:1037D00060832C813D81235B3B4FF9017083F701AE
:1037E000808380913D058F5F80933D05202F30E0E1
:1037F0003F832E8321573B4F29018E819F81835B1D
:103800009B4F5C01EE81FF81EF52FB4F4F018E8198
:103810009F81880F991F9C0121593D4F7901812F6C
:1038200090E09D838C838E819F81EC81FD818E173A
:103830009F0734F081E0FA81F23408F49ACC74CC1A
:10384000909113059B83292F31E0231B08F420E07E
:10385000222E822F90E0FC01EC5EFA4F6F01FB817B
:103860002F1660F1F20161912F01F5017081F401D1
:103870008081272F30E0231B08F420E0F5012193FD
:103880005F01282F31E0231B08F420E0F40121938D
:103890004F01222349F00E94140B462F282F672F37
:1038A0008E819F810E94C4092E813F812F5F3F4FEF
:1038B0003F832E8332E0E30EF11CB5CFF6018191F8
:1038C0006F01F7010081081B110B6180F6018781F0
:1038D000681A7708009F9001019F300D300D112468
:1038E000669CC001679C900D900D1124820F931F60
:1038F0000E94B20A898360914D0621E0620F08F4AC
:103900006FEFF601EE0FFF1FE351F54085899689B1
:103910000E940A0B9C01005E1F4F01341105B8F58F
:1039200040E2640E711C61E46616710410F084E6D6
:10393000898380913D0567E00E94DB31E92FF0E04B
:10394000EE0FFF1FEB5CFC4F50814181C901E98103
:103950008E0F911D880F991F880F991F8F3F91051A
:1039600019F010F08FEF90E0809520E0382F230FB2
:1039700008F42FEF222349F06981603230F4F2011C
:103980005083F5014083F4012083239468CF94E6AB
:103990009983CFCF209119018EE0289F802D11248B
:1039A0008983082F025F702E033410F052E4752EC5
:1039B00060914D0620E1620F08F46FEF809145069B
:1039C000909146060E940A0B6FE170E00E949031D0
:1039D000892B29F480913D058F5F80933D053091BF
:1039E0003C053A83323408F459C09981892F90E01C
:1039F0009D838C83880F991FFC01E159FD4F7F0146
:103A000043E1A42E45E0B42EEC81E71508F068CE22
:103A1000EC81FD81ED50FD4F808190911A01892349
:103A2000A1F14090130580913D0582958F7067E06C
:103A30000E94DB31E92FF0E0EE0FFF1FEB5CFC4F43
:103A4000508061809CE2C92E95E0D92E23E1822E20
:103A500025E0922E10E0882D8A19841508F43DC0C7
:103A600020914C06111173C070914B06229F212D9D
:103A7000112460914A06822F0E94140B462F282F92
:103A8000672F8C819D810E94C4098C819D81019644
:103A90009D838C8392E0E90EF11CB6CF60914A06BB
:103AA00070914B0620914C06229F212D1124822FCC
:103AB0000E94140B462F2A81E22FF0E0EA52FE4FBB
:103AC0009081282F672F892F90E00E94C409809150
:103AD0003C058F5F80933C0527CBF7014081F401C3
:103AE0008181481B550BF7012181F4018185281B39
:103AF000330B449FB001459F700D700D1124229F20
:103B0000C001239F900D900D1124860F971F0E94D6
:103B1000B20A282E60914D0621E0620F08F46FEF83
:103B2000F601819191916F010E940A0B821991090E
:103B30008F3F910519F010F08FEF90E08095282FBE
:103B4000120F08F41FEF3FEF831A930A84CF129FDE
:103B5000112D1124652D762D812F8ECF30921401D9
:103B6000832F8370809313010E94B41512CB809130
:103B70003E0581110E94D817409145065091460696
:103B800060914706709148062FB7F894809112060D
:103B900090911306A0911406B09115062FBF841BB7
:103BA000950BA60BB70B4097A105B10508F45CCAAD
:103BB0001092150159CAE9E4F6E085E3808380910B
:103BC0001C0190911D01A0911E0181839283A3830A
:103BD0008FE784838FEF85830E94D8170895909193
:103BE0005F0892FB222720F9281771F080FB92F9D9
:103BF00090935F0860915E0870915F0884E090E0A8
:103C00000E946E350E940110089590E080E00E94AD
:103C10003A35873E9E4F19F40E94BF17089580E001
:103C2000089567EE7EEF90E080E00E946E3560E0E0
:103C300082E090E00E94503560E083E090E00E94D6
:103C400050351092A70360E074E184E090E00E9498
:103C50006E3560E086E090E00E9450356FEF87E0BF
:103C600090E00E94503540E050E0BA0188E090E0DA
:103C70000E94623560E08DE090E00E94503540E0A7
:103C800050E0BA0188E190E00E94623560E087E18F
:103C900090E00E94503540E050E0BA018CE190E0A5
:103CA0000E94623570E060E080E290E00E946E3534
:103CB00040E050E0BA0188E190E00E94623580E087
:103CC0000E9429170E94431740E050E0BA018FE09C
:103CD00090E00E94623540E050E0BA0183E190E05C
:103CE0000E94623508951F920F920FB60F92112411
:103CF0002F933F934F935F936F937F938F939F93F4
:103D0000AF93BF93CF93DF93EF93FF93D091E900ED
:103D1000DF708091EC00C82FC17080FDC0E8109268
:103D2000E9008091F000877F8093F00078940E94F2
:103D3000E3111092E9008091F00088608093F00018
:103D4000CD2BCF70C093E900FF91EF91DF91CF9120
:103D5000BF91AF919F918F917F916F915F914F91A3
:103D60003F912F910F900FBE0F901F9018951F92AB
:103D70000F920FB60F9211242F933F934F935F939F
:103D80006F937F938F939F93AF93BF93EF93FF9323
:103D90008091E10082FF09C08091E20082FF05C0AE
:103DA0008091E1008B7F8093E1008091DA0080FFB9
:103DB00024C08091D80080FF20C08091DA008E7FDF
:103DC0008093DA008091D90080FF9DC080E189BD99
:103DD00082E189BD09B400FEFDCF81E080933B06FE
:103DE00080911606811109C00E9409060E94AA0648
:103DF0008091E20084608093E2008091E10080FF86
:103E000017C08091E20080FF13C08091E2008E7F96
:103E10008093E2008091E20080618093E2008091D3
:103E2000D80080628093D80019BC85E080933B065F
:103E30008091E10084FF2BC08091E20084FF27C0C5
:103E400080E189BD82E189BD89B5982F917080FF9D
:103E5000FBCF8091D8008F7D8093D8008091E100C6
:103E60008F7E8093E1008091E2008F7E8093E2005C
:103E70008091E20081608093E20080913C0688237B
:103E800009F447C084E080933B0680913B06809113
:103E9000E10083FF27C08091E20083FF23C080916F
:103EA000E100877F8093E10082E080933B061092DF
:103EB0003C068091E1008E7F8093E1008091E200DA
:103EC0008E7F8093E2008091E20080618093E20027
:103ED00042E060E080E00E9478068091F000886017
:103EE0008093F000FF91EF91BF91AF919F918F91DF
:103EF0007F916F915F914F913F912F910F900FBEE6
:103F00000F901F90189519BC10923B061092160640
:103F100074CF8091E30087FD93E090933B06B5CF8B
:103F200078941F921FB61F9211248F939F93AF9383
:103F3000BF938091120690911306A0911406B09140
:103F400015060196A11DB11D8093120690931306CC
:103F5000A0931406B0931506BF91AF919F918F91D6
:103F60001F901FBE1F9018959C014FB7F894809129
:103F7000120690911306A0911406B09115064FBF3A
:103F8000821B930B08952FB7F8948091120690919D
:103F90001306A0911406B09115062FBF08950F9334
:103FA0001F93CF93DF93C62FD42F022FFC01828162
:103FB0008823A9F060935D080E94C31F90935C085A
:103FC00080935B08C77081E001C0880FCA95EAF74B
:103FD0000E94AC14DF91CF911F910F9108958091B1
:103FE0005D08681332C080915B0890915C080E9464
:103FF000B41F883C910548F510E21D0FCD17B9F0AC
:1040000080E28C0F883040F4C77081E001C0880FD7
:10401000CA95EAF70E94A114183048F481E09D2F58
:10402000977001C0880F9A95EAF70E94AC14802F10
:104030000E948716183070F6D77081E001C0880F93
:10404000DA95EAF70E94A114C5CFC77081E001C0DC
:10405000880FCA95EAF7F6CFA8E0B0E0E2E3F0E215
:104060000C94A6318C01DC0113968D919C911497D0
:10407000892B39F08C9111969C9189238F3F09F0FF
:104080004EC72896E0E10C94C2310E949017F82E9A
:10409000682F89819A810E94AE0F69817A818F2D64
:1040A0000E9482177C01F8018281882309F4C4C62A
:1040B000C70182509747409708F0CBC68FEF93E037
:1040C0000E943235811185C0EA94EA9446E6A42E16
:1040D00042E0B42EE11047C0FE01339686E0DF01D6
:1040E0001D928A95E9F73AE0432E7501BFEFEB1A6E
:1040F000FB0AC5010E94323589831A82882309F49C
:1041000068C0813009F077C06501E2E0CE0ED11CB5
:10411000C7010E9432358A83882309F45AC09FEF71
:10412000980F933070F5F3E0AF0EB11CC6010E94FA
:1041300032358B83882309F44CC01C82DE01119632
:104140007D01F7012081222381F2213009F093C003
:1041500091818281913009F050C0F2E0EF0EF11CA4
:104160000E94871651C0A114F4E0BF0691F1C50169
:104170000E943235811101C0EA942FEFA21AB20ACF
:10418000A9CF56018430D1F622E0E22EF12C56015F
:104190002FEFA21AB20AC6010E943235E1E0F0E028
:1041A000EC0FFD1FEE0DFF1D8083882391F08C37EF
:1041B00041F4E2E0F0E0EC0FFD1FEE0DFF1D108278
:1041C000BDCF3FEFE31AF30A650187E0E816F1047B
:1041D000F1F680916008877009F453CFD8011296E8
:1041E0008C91882309F44DCF80915F0882FF49CFDD
:1041F0000E94011046CF5701A1CF923049F422E02E
:10420000E20EF11C0E94DB15EFEFEE1AFE0A99CFC9
:10421000933031F432E0E30EF11C0E94B614F4CF77
:10422000943021F08FEFE81AF80AEECF92E0E90E11
:10423000F11C30E020E0B7016F5F7F4FD70111968E
:104240004C918053990B8A30910550F021503109DF
:10425000D8F2EFE9FFE03197F1F700C00000F6CFA8
:10426000429EF001439EF00D11249C012E0F3F1F32
:10427000842F7B01E0CFE22FF0E0E555FE4F549014
:10428000822F86958695869590E0FC01E556FE4F37
:1042900064902770712C022E02C0759467940A9462
:1042A000E2F731E063227724FC01E557FE4F84906A
:1042B000912C022E02C0959487940A94E2F7A1E013
:1042C0008A229924FC01E558FE4FC490D12C02C0EB
:1042D000D594C7942A95E2F7B1E0CB22DD2461148E
:1042E000710419F081EE0E94DB158114910419F01C
:1042F00086EE0E94DB15852D0E948716811491049D
:1043000019F086EE0E94B6146114710419F081EE62
:104310000E94B614C114D10409F476CF8CE220CFE8
:1043200081E00E941D100E94E80F53CF81E00E949F
:10433000F40FF9CF82E0F5CFC701BEC5F701E85110
:10434000FC47E730F10508F0D8C2E250FA4C0C9473
:10435000FB31882309F43DCF80914603382F32701A
:1043600081FB992790F990936703282F207285FB92
:10437000992790F99093660331111BC0222309F10C
:1043800085EE0E94B6148FE20E94DB158FE20E9438
:10439000B61480916703882319F081EE0E94DB1523
:1043A00080916603882309F414CF85EE0E94DB1503
:1043B00010CF81EE0E94B61480916603882319F312
:1043C000DFCF8FE10E94DB158FE10E94B61401CF91
:1043D000882309F4FECE80914603382F327081FB8A
:1043E000992790F990936703282F207285FB9927CE
:1043F00090F99093660331110AC0222381F085EE73
:104400000E94B6148EE20E94DB158EE2C0CF81EED0
:104410000E94B614809166038823A1F3F0CF83E253
:104420000E94DB1583E2D1CF882309F4D2CE80919C
:104430004603382F327081FB992790F990936703D8
:10444000282F207285FB992790F9909366033111EC
:1044500010C02223B1F085EE0E94B61481EE0E94B6
:10446000DB1583E20E94DB1583E20E94B61481EE25
:104470008ECF81EE0E94B61480916603882371F37B
:10448000EACF84E20E94DB1584E29FCF882309F4FF
:10449000A0CE80914603382F327081FB992790F986
:1044A00090936703282F207285FB992790F99093AA
:1044B000660331110DC0222399F085EE0E94B614D7
:1044C00081EE0E94DB1584E30E94DB1584E3CDCFEF
:1044D00081EE0E94B61480916603882389F3EDCFA4
:1044E00085E20E94DB1585E270CF882309F471CE46
:1044F00080914603382F327081FB992790F9909371
:104500006703282F207285FB992790F99093660303
:1045100031110DC0222399F085EE0E94B61481EE70
:104520000E94DB1585E20E94DB1585E29ECF81EEBD
:104530000E94B61480916603882389F3EDCF86E24A
:104540000E94DB1586E241CF882309F442CE809198
:104550004603382F327081FB992790F990936703B7
:10456000282F207285FB992790F9909366033111CB
:104570000DC0222399F085EE0E94B61481EE0E94B0
:10458000DB1586E20E94DB1586E26FCF81EE0E948A
:10459000B61480916603882389F3EDCF87E20E94E9
:1045A000DB1587E212CF882309F413CE80914603EE
:1045B000382F327081FB992790F990936703282F49
:1045C000207285FB992790F99093660331110DC0F5
:1045D000222399F085EE0E94B61481EE0E94DB152D
:1045E00087E80E94DB1587E840CF81EE0E94B61471
:1045F00080916603882389F3EDCF8DE20E94DB155D
:104600008DE2E3CE882309F4E4CD80914603382F70
:10461000327081FB992790F990936703282F2072BD
:1046200085FB992790F99093660331110DC02223E1
:1046300099F085EE0E94B61481EE0E94DB1583E3AB
:104640000E94DB1583E311CF81EE0E94B6148091A6
:104650006603882389F3EDCF81EE0E94DB158DE29E
:104660000E94DB158DE20E94B61481EEAECE882347
:1046700009F4AFCD80914603382F327081FB992722
:1046800090F990936703282F207285FB992790F962
:104690009093660331110DC0222399F085EE0E949C
:1046A000B61481EE0E94DB1580E30E94DB1580E3E7
:1046B000DCCE81EE0E94B61480916603882389F3D4
:1046C000EDCF80E30E94DB1580E37FCE882309F4E1
:1046D00080CD80914603382F327081FB992790F965
:1046E00090936703282F207285FB992790F9909368
:1046F000660331110DC0222399F085EE0E94B61495
:1047000081EE0E94DB1582E30E94DB1582E3ADCED1
:1047100081EE0E94B61480916603882389F3EDCF61
:1047200082E30E94DB1582E350CE882309F451CD49
:1047300080914603382F327081FB992790F990932E
:104740006703282F207285FB992790F990936603C1
:1047500031110DC0222399F085EE0E94B61481EE2E
:104760000E94DB1589E80E94DB1589E87ECE81EE88
:104770000E94B61480916603882389F3EDCF87E801
:104780000E94DB1587E821CE882309F422CD809191
:104790004603382F327081FB992790F99093670375
:1047A000282F207285FB992790F990936603311189
:1047B0000AC0222381F085EE0E94B61484E30E9491
:1047C000DB1584E3E4CD81EE0E94B614809166038C
:1047D0008823A1F3F0CF83E30E94DB1583E3F5CDBB
:1047E000882309F4F6CC80914603382F327081FB80
:1047F000992790F990936703282F207285FB9927BA
:1048000090F99093660331110DC0222399F085EE43
:104810000E94B61481EE0E94DB158FE10E94DB1529
:104820008FE123CE81EE0E94B61480916603882327
:1048300089F3EDCF81EE0E94DB1584E20E94DB1547
:1048400084E211CF882309F4C4CC80914603382F29
:10485000327081FB992790F990936703282F20727B
:1048600085FB992790F99093660331110DC022239F
:1048700099F085EE0E94B61481EE0E94DB158EE25F
:104880000E94DB158EE2F1CD81EE0E94B61480917C
:104890006603882389F3EDCF81EE0E94DB158FE25A
:1048A0000E94DB158FE2DFCE882309F492CC81EEE3
:1048B0000E94DB1589E30E94DB1589E3D4CE26E252
:1048C00041EE61EEC8010E94CF1F83CC27E245EE86
:1048D00065EEF8CF26E241EE60EEF4CF27E245EE3A
:1048E00064EEF0CF26E241EE62EEECCF27E245EE39
:1048F00066EEE8CF28E241E0EBCFF8018281882321
:1049000009F435C310925D08C7019057839708F0EA
:1049100019C384E090E00E943A3590935F08809339
:104920005E08F701E150F047E232F10520F4EB5F59
:10493000F94C0C94FB3180915E08816080935E0895
:1049400095C080915F08886080935F088FC08091D8
:104950005E088260F3CF80915E088460EFCF809123
:104960005E088860EBCF80915F088160EDCF809119
:104970005F088260E9CF80915E088061DFCF80911F
:104980005E088062DBCF80915E088064D7CF0E9492
:10499000C31180915E088068D1CF80915E088C60E1
:1049A000CDCF80915F088360CFCF80915E088E7FEE
:1049B000C5CF80915F08877FC7CF80915E088D7FCC
:1049C000BDCF80915E088B7FB9CF80915E08877FD5
:1049D000B5CF80915F088E7FB7CF80915F088D7FC4
:1049E000B3CF80915E088F7EA9CF80915E088F7DC6
:1049F000A5CF80915E088F7BA1CF0E94C3118091CB
:104A00005E088F779BCF80915E08837F97CF8091E0
:104A10005F088C7F99CF80915E0882FB992790F97F
:104A200021E0922790FB82F990FB83F987CF809158
:104A30005F08982F909591708E7F892B90FB81F95C
:104A400083CF90915E08892F8F7B96FF806476CF0D
:104A50000E94C31190915E08892F97FB87F98058B7
:104A60006DCF61E08EE090E00E94503560915E086D
:104A700070915F0884E090E00E946E350E94C3113F
:104A8000A8CB60E0EFCF90915E08892F8F7E94FFD6
:104A9000806154CF90915E08892F8E7F90FF816056
:104AA0004DCF90915F08892F877F93FF88604CCF0F
:104AB00085E358C280916803811104C089E20E9495
:104AC0001B0F52C285E3FBCF8091490691E08927F5
:104AD000809349061092150180913E058160809374
:104AE0003E0577CB4AE858E065E978E00E94DB07AD
:104AF00070CB45E958E06AE878E0F8CF4BE558E03C
:104B000066E678E0F3CF46E658E06BE578E0EECF76
:104B10004FE358E06DE478E0E9CF4DE458E06FE30F
:104B200078E0E4CF43E258E061E378E0DFCF41E3AF
:104B300058E063E278E0DACF47EF57E065E078E0ED
:104B4000D5CF45E058E067EF77E0D0CF61E081E076
:104B50000E9471083ECB61E085E0FACF61E08DE014
:104B6000F7CF61E082E1F4CF0E94C311FFEF24E3AD
:104B70003CE0F15020403040E1F700C000000E94CE
:104B800067076FEF7FEF90E080E00E946E350E9434
:104B9000A51680915F0882FB882780F991E089271C
:104BA0000E94EF1DF8018281E080F180882309F4E2
:104BB0005EC0C7010E949017D82E682FC7010E94BF
:104BC000AE0FB7018D2D0E9482170E949A0D7C01B5
:104BD000982ED8011296AC90809160088770B9F039
:104BE000CA2CAA20A9F08F2D807F803421F080E28A
:104BF0008E0D883060F080915F0882FF08C00E94AF
:104C00000110809160088770CC24C3948111C12C5D
:104C1000DF2CD2949FE0D922B4E0DB1609F47EC0E9
:104C2000BD1550F1E1E0ED15D0F5AD2DA850BB0B51
:104C3000129710F40E94CE07CC2009F422CA80916A
:104C4000600880FD1ECAF8011282859585958595BC
:104C50000E941D10C8010E942C208091600885953B
:104C6000859585950E94F40F0CCA80E099CFC70105
:104C70000E947A0FD82EA5CFF8E0DF1609F468C09D
:104C800029E0D212D2CF8F2D8F70F82EAA2009F4EE
:104C9000CCC00E941D108E2D0E94AC14C6CF3F2D9B
:104CA0003F70B32E9F2D907F19F0B29480EFB82201
:104CB000AA20C9F0BB2069F080E28E0D883010F088
:104CC00091100BC08091A603B82AB092A6030E944F
:104CD0006E118E2D0E94DB15A8CF8091A503B82AF6
:104CE000B092A503F4CF8E2D0E94B614BB2009F418
:104CF0009CCFB09480E28E0D883010F0911008C0E7
:104D00008091A603B822B092A6030E946E118DCFA7
:104D10008091A503B822B092A503F7CF8F2D869579
:104D20008695837061F0813009F07FCFC701937061
:104D3000A11002C080E090E00E94840776CFC701F6
:104D40009370A11002C080E090E00E94A9076DCF8F
:104D50008F2D837091F5A11068CF4E2D4295469509
:104D60004770440F440F8E2D8F70042E01C0880FA2
:104D70000A94EAF72E2D2071E4FE07C02FE030E000
:104D800001C0220F4A95EAF720953F2D36953695BA
:104D90003370323069F050F44091A703313029F07C
:104DA000822B84230E94291040CF842B822BFACFA0
:104DB000282B8091A7038227F5CF8695AA2011F092
:104DC0008F2D8170882309F430CF4E2D4295469562
:104DD0004770440F440F8E2D8F70042E01C0880F32
:104DE0000A94EAF72E2D2071E4FE07C02FE030E090
:104DF00001C0220F4A95EAF720953F2D369536954A
:104E00003370323069F050F440915A08313029F053
:104E1000822B84230E94E50F08CF842B822BFACFAC
:104E2000282B80915A088227F5CF8E2D0E94A1143D
:104E30008F2D0E94F40FF9CEE114F7E7FF0609F475
:104E400075CA21E0E21627E7F20609F05BC082E0AE
:104E50006ECAE11437E7F30609F462CA81E0E81686
:104E600087E7F80609F466CA80910A068823A1F04C
:104E700080910E04882381F062E070E08BE292E082
:104E80000E942C10892B41F410920E048FEF9FEF9B
:104E900090935106809350060E9499108CE291E005
:104EA0009093EC038093EB03C701905281159043DC
:104EB00008F042CAC701992720E28C33910520F4FB
:104EC000FC01E05DFE4F20811F922F939F938F93F3
:104ED000D8018C911F928F9311968C911F928F9372
:104EE0008FE191E09F938F931F9288E18F9383EDE1
:104EF00093E09F938F930E9483320FB6F894DEBFA6
:104F00000FBECDBFF701FF57EF30F10508F016CA0D
:104F1000E95DF94CD80112968C910C94FB3185E037
:104F2000F801DE01119601900D928A95E1F7D80102
:104F300012962C9189819A812111A7C80E947A0F1B
:104F4000F82EABC8B6E1EB16BCE7FB0621F5809165
:104F5000A6038A7A91E009F490E0909368038111A6
:104F6000A7CD89E20E94460F0E946E1132C9E6E188
:104F7000EE16ECE7FE0609F49DCD8091A603827241
:104F8000F701E052F847E531F10508F00BCEEA5C95
:104F9000F94C0C94FB31F3E0EF16FCE7FF0609F443
:104FA000F0CD60F4E1143CE7F30609F4DDCD81E0D7
:104FB000E8168CE7F80609F4EACDF4CD9BE5E9168E
:104FC0009CE7F90609F451CEACE5EA16ACE7FA061F
:104FD00009F4DFCDBAE5EB16BCE7FB0609F0E2CD3C
:104FE00081E0DECDAAE0B0E0E8EFF7E20C94B43166
:104FF0004E835F83688779878A8761111092A50342
:1050000085E0FE013696DE01119601900D928A959B
:10501000E1F7CE0101960E942C202A96E2E00C9442
:10502000D031A8E0B0E0E7E1F8E20C94A4310BEA5B
:1050300013E018870F8323EB222E23E0322E01EAA0
:1050400011E0912CEE24E394F12CAF81B8854D90C2
:105050005C9011971D921D92B887AF83F8018191E2
:105060008F01E82FE295EF70F0E091A18F7057016A
:1050700001C0AA0C8A95EAF7892F8A2981A382A107
:105080009A2D90959E83892382A3A0EAAA95F1F791
:1050900049EA51E06A0190E080E06F8178856250D2
:1050A0007109D6018D906D01282D22952F7030E069
:1050B000D90190962C91DB016D907C9030E0B82D59
:1050C000BF7002C035952795BA95E2F720FDC9C09B
:1050D0009701082E02C0220F331F0A94E2F72629F7
:1050E0003729DB012D933C93019689309105C9F650
:1050F00081A1BE818B2381A382A1A82AA2A281E0E3
:10510000FB01208131812415350509F480E0982ABE
:105110008F8198852816390609F097CF30E020E076
:1051200061E070E095EA692E91E0792EDA018D91C7
:10513000AD01E82FE295EF70F0E0A1A18F708B0137
:1051400002C0000F111F8A95E2F7C8019A2F982B11
:1051500091A392A18095892382A310EA1A95F1F771
:105160007B01022E02C0EE0CFF1C0A94E2F75701ED
:10517000A094B094E3EBF3E081EA282E81E0382E8E
:10518000812C6F0100811181D1015D901D01852D60
:1051900082958F7090E0DC0190968C9190E0B52D17
:1051A000BF705B2E02C095958795BA95E2F780FD9A
:1051B0005BC0C8018E299F29918380833296D601D6
:1051C0008D919C910817190711F08824839462141B
:1051D0007304B9F6FA0131978081E82FE295EF70F8
:1051E000F0E011A18F70DB0101C0AA0F8A95EAF7E8
:1051F0009A2F9095912391A382A18A2B82A398281C
:105200002F5F3F4F2930310509F090CF992081F170
:1052100081E08093AA030E94C31F9093A903809307
:10522000A8038091A8039091A9030E94B41F059739
:1052300018F140E150E06BEA73E080E194E00E94F5
:105240006D3210E0892B51F080E1EBEAF3E0A0E150
:10525000B4E001900D928A95E1F711E01092AA0353
:105260000CC030E020E03BCFC8018A219B21A4CFB5
:105270008091AA038111D5CF10E08091CE038823BD
:10528000A1F0869519828823A9F01A821B820E94B8
:10529000C31F8160782F9D838C831092CE03498138
:1052A0005A816B818D810E94F227812F2896E2E13D
:1052B0000C94C03181E08A83E9CF1F921FB61F9200
:1052C00011248F939F93AF93BF9380911106811107
:1052D00013C08091120690911306A0911406B0910C
:1052E00015064196A11DB11D8093120690931306D9
:1052F000A0931406B0931506BF91AF919F918F9123
:105300001F901FBE1F901895CDB7DEB7E1970FB65F
:10531000F894DEBF0FBECDBF85B7806885BF85B767
:10532000806885BF84B7877F84BF0FB6F894A8953F
:1053300080916000886180936000109260000FBED1
:1053400080E890E00FB6F89480936100909361003C
:105350000FBE85E59DE090934503809344030E9432
:1053600009060E94AA068091E20084608093E20010
:10537000789480913B068823A1F01091E9001F707A
:105380009091EC00892F817090FD80E8182B10928D
:10539000E9008091E80083FD0E94E3111F701093E3
:1053A000E90082E084BD93E095BD9AEF97BD8093BC
:1053B0006E000E94BF17811102C00E94431781E056
:1053C0008093D10325982D9A26982E9A8FE891E004
:1053D0000197F1F700C000002091D10342ED53E0A6
:1053E000FA018E2F841B821708F4A8C0A1EAB1E04D
:1053F00049EA51E09D0161E070E0F90181919F016E
:10540000E82FE295EF70F0E0F1A08F708B0101C002
:10541000000F8A95EAF7902F90959F2191A382A182
:10542000802B82A34217530741F729EA31E062EB50
:1054300071E0A90101E010E0FA018191AF01E82FCC
:10544000E295EF70F0E0D1A08F70780101C0EE0C12
:105450008A95EAF79E2D90959D2191A382A18E2990
:1054600082A36417750741F761E070E0F90181914B
:105470009F01E82FE295EF70F0E011A18F70AB0172
:1054800001C0440F8A95EAF7942F9095912391A338
:1054900082A1842B82A3F1E0223B3F0739F741E050
:1054A00050E08D91E82FE295EF70F0E061A18F70F0
:1054B0009A0101C0220F8A95EAF7922F90959623C0
:1054C00091A382A1822B82A321E0A93AB20749F7D6
:1054D000EBEAF3E0A0E1B4E0119211921D921D926B
:1054E00033E0EB3BF307C1F70E94051E811102C0B8
:1054F0000E94111E82E090E00E9432358093BD032D
:1055000084E090E00E943A3590935F0880935E08B3
:105510000E9411288FE39CE90197F1F700C0000079
:105520000E9411288091100480FF14C06FEF7FEF5C
:1055300090E080E00E946E350E94670783B185FB92
:10554000882780F91E9904C090E0892B819349CF68
:1055500092E0FBCF83E090E00E9432350E94291058
:10556000109213058FEF9FEF90932D0580932C05DC
:1055700090932F0580932E059093310580933005ED
:1055800090933305809332059093350580933405CD
:1055900090933705809336059093390580933805AD
:1055A00090933B0580933A051092200490933A041F
:1055B0008093390490933C0480933B0490933E0481
:1055C00080933D049093400480933F049093420461
:1055D0008093410490934404809343049093460441
:1055E0008093450490934804809347040E94051ECD
:1055F000811104C00E94111E0E94DB1D81E0809376
:105600003E0546E050E06CE170E089E496E00E94DF
:10561000223510923E05809149068C7F11F40E943C
:10562000DB1D10920D0480E880934F060E94A43089
:105630006DE070E080E492E00E942C10892B59F517
:1056400080910D0463E070E081FDFBC08DE392E08A
:105650000E942C10892BF9F46DE070E08DE292E04D
:105660000E942C10892BB9F40E947807605A75416A
:105670008F4F9F4F60930506709306068093070631
:10568000909308060E94991081E080930A06809307
:10569000090610920E0484E091E090930E06809328
:1056A0000D0680913B0600E112E1853009F409C145
:1056B0000E9411288EEB93E09DA78CA7A0E1B4E097
:1056C000FC01219131918D919D9143E0EE3CF407D5
:1056D00009F401C128173907A1F347E2842E42E0FB
:1056E000942E80E194E09FA78EA7712C58E0252E80
:1056F000AEA5BFA5ED90FD90BFA7AEA7ECA5FDA5FB
:1057000081919191FDA7ECA78E159F0509F48DC09D
:105710009C012E253F2539AB28AB24011BA6CC24A8
:10572000C394D12C88A999A98C219D21892B09F496
:105730006CC087010C211D213BA53EA37FA281E007
:105740000115110509F480E088A70E94C31F81603C
:10575000782F9AA789A74EA15FA168A58AA50E9464
:10576000F227012B29F0D2018C918F3F09F00EC155
:10577000312C032D10E080912004800F912F911D7A
:1057800009976CF188E0A82EB12CA01AB10AB801D3
:105790006F5D7B4FA50181E294E00E947A32B801EF
:1057A000675D7B4FA50189E294E00E947A32A501F2
:1057B000440F551FB801660F771F675C7B4F89E365
:1057C00094E00E947A32B8016F5C7B4FA50181E3BF
:1057D00094E00E947A32822D831980932004809174
:1057E000200490E0A62DB0E09D01220F331F215927
:1057F0003D4FAA0FBB1FBD0160597D4F41E0480FCF
:10580000931508F4C7C080932004BBA5BF5FBBA756
:10581000CC0CDD1CEFEF4E1A5E0AB93009F082CFD6
:10582000ECA5FDA53297F182E0827394F9E08F0E2A
:10583000911C28E072125CCF0E947807EE24E3945A
:105840006DC08AE392E004CF80913B06843041F141
:105850000E94E3170E94561010921106A8E1B0E0D2
:10586000E0E40FB6F894A895A09360000FBEE09313
:10587000600083B7817F846083BF83B7816083BF0B
:105880007894889583B78E7F83BF0FB6F894A895D8
:1058900080916000886180936000109260000FBE6C
:1058A00080913A06882369F00E941128E0E1F4E033
:1058B00081919191892B09F028C424E0E032F2070C
:1058C000B9F780913B06853009F4BECF0E94C31121
:1058D0000E94CE07EDCE2817390709F0FECE0E94B0
:1058E000C31F8C018091BB039091BC03081719075B
:1058F000A1F08FEF89A38AA31BA20E94C31F81601E
:10590000782F9DA38CA349A15AA16BA18DA10E94C0
:10591000F2271093BC030093BB03E12C0E94E31712
:10592000B12CF12CE2E09E2EAA24A3948091D10305
:10593000B81608F444C0F1100E94780780910A0656
:10594000882309F4F3C082E596E090935908809388
:1059500058088091EB039091EC03009709F42EC155
:1059600001979093EC038093EB03892B09F426C1F4
:1059700088E692E00E942E11E0915A08EF3008F07C
:10598000A1C0F0E0E55BF94C0C94FB31682E3324A8
:105990003394EFCE90E0FC01E05EFB4FD9015C91C7
:1059A0005183DB015C915187618A880F991FFC014B
:1059B000E05EFB4F128E118E91E0842F1FCFCB2C17
:1059C000D12CE3B1E5FBEE27E0F91E9972C080E02F
:1059D0008E2BD601AE52BC4FEC919E2F937089173F
:1059E00009F465C0EE0FEE0FE82BEC93EF70F0E0DA
:1059F000EA54FE4F860100531C4F8081D8019C91D0
:105A0000890F8C9320E084300CF1F601E153FC4FB8
:105A100080818F5F8083F601EE0FFF1FEE54FE4FF3
:105A2000808191819A838983AB820E94C31F8160A8
:105A3000782F9D838C83F601E253FC4FA08249812D
:105A40005A816B818D810E94F22721E0F8018081CB
:105A50008D3F0CF5F601E153FC4F8081815080832E
:105A6000F601EE0FFF1FEC54FE4F808191819A8367
:105A70008983AB820E94C31F8160782F9D838C83B2
:105A8000F601E253FC4F908249815A816B818D81EE
:105A90000E94F22721E0D8018C91082E000C990B6E
:105AA00064E070E00E94E731F8018083F22AB39449
:105AB0003DCF82E08DCF80E692E00E942E1181E002
:105AC0000E943C1103ED13E0D8010D900020E9F78E
:105AD0008D010150110953EDC52E53E0D52EC0168E
